{"src/contracts/BookingEscrow.sol":{"BookingEscrow":{"abi":[{"inputs":[{"internalType":"address","name":"_escrowAdmin","type":"address"}],"stateMutability":"nonpayable","type":"constructor"},{"inputs":[],"name":"AlreadyDeposited","type":"error"},{"inputs":[],"name":"BookingAlreadyCompleted","type":"error"},{"inputs":[],"name":"BookingNotDeposited","type":"error"},{"inputs":[],"name":"InsufficientDeposit","type":"error"},{"inputs":[],"name":"InvalidBookingId","type":"error"},{"inputs":[],"name":"InvalidDates","type":"error"},{"inputs":[],"name":"NotAuthorized","type":"error"},{"inputs":[],"name":"TransactionFailed","type":"error"},{"anonymous":false,"inputs":[{"indexed":true,"internalType":"uint256","name":"bookingId","type":"uint256"},{"indexed":true,"internalType":"address","name":"guest","type":"address"},{"indexed":false,"internalType":"string","name":"reason","type":"string"},{"indexed":false,"internalType":"uint256","name":"refundAmount","type":"uint256"}],"name":"BookingCancelled","type":"event"},{"anonymous":false,"inputs":[{"indexed":true,"internalType":"uint256","name":"bookingId","type":"uint256"},{"indexed":false,"internalType":"uint256","name":"amount","type":"uint256"}],"name":"BookingCompleted","type":"event"},{"anonymous":false,"inputs":[{"indexed":true,"internalType":"uint256","name":"bookingId","type":"uint256"},{"indexed":true,"internalType":"address","name":"admin","type":"address"}],"name":"BookingConfirmed","type":"event"},{"anonymous":false,"inputs":[{"indexed":true,"internalType":"uint256","name":"bookingId","type":"uint256"},{"indexed":true,"internalType":"address","name":"guest","type":"address"},{"indexed":true,"internalType":"string","name":"accommodationId","type":"string"},{"indexed":false,"internalType":"uint256","name":"totalAmount","type":"uint256"},{"indexed":false,"internalType":"uint256","name":"checkIn","type":"uint256"},{"indexed":false,"internalType":"uint256","name":"checkOut","type":"uint256"}],"name":"BookingCreated","type":"event"},{"anonymous":false,"inputs":[{"indexed":true,"internalType":"uint256","name":"bookingId","type":"uint256"},{"indexed":true,"internalType":"address","name":"guest","type":"address"},{"indexed":false,"internalType":"uint256","name":"amount","type":"uint256"}],"name":"DepositReceived","type":"event"},{"anonymous":false,"inputs":[{"indexed":true,"internalType":"uint256","name":"bookingId","type":"uint256"},{"indexed":true,"internalType":"address","name":"admin","type":"address"},{"indexed":true,"internalType":"address","name":"to","type":"address"},{"indexed":false,"internalType":"uint256","name":"amount","type":"uint256"}],"name":"FundsReleased","type":"event"},{"inputs":[{"internalType":"uint256","name":"","type":"uint256"}],"name":"bookings","outputs":[{"internalType":"uint256","name":"bookingId","type":"uint256"},{"internalType":"address","name":"guest","type":"address"},{"internalType":"string","name":"accommodationId","type":"string"},{"internalType":"uint256","name":"checkIn","type":"uint256"},{"internalType":"uint256","name":"checkOut","type":"uint256"},{"internalType":"uint256","name":"totalAmount","type":"uint256"},{"internalType":"uint256","name":"depositedAmount","type":"uint256"},{"internalType":"enum BookingEscrow.BookingStatus","name":"status","type":"uint8"},{"internalType":"bool","name":"isCompleted","type":"bool"},{"internalType":"uint256","name":"createdAt","type":"uint256"},{"internalType":"uint256","name":"completedAt","type":"uint256"}],"stateMutability":"view","type":"function"},{"inputs":[{"internalType":"uint256","name":"_bookingId","type":"uint256"},{"internalType":"string","name":"_reason","type":"string"}],"name":"cancelBooking","outputs":[],"stateMutability":"nonpayable","type":"function"},{"inputs":[{"internalType":"uint256","name":"_bookingId","type":"uint256"}],"name":"completeBooking","outputs":[],"stateMutability":"nonpayable","type":"function"},{"inputs":[{"internalType":"uint256","name":"_bookingId","type":"uint256"}],"name":"confirmBooking","outputs":[],"stateMutability":"nonpayable","type":"function"},{"inputs":[{"internalType":"string","name":"_accommodationId","type":"string"},{"internalType":"uint256","name":"_checkIn","type":"uint256"},{"internalType":"uint256","name":"_checkOut","type":"uint256"},{"internalType":"uint256","name":"_totalAmount","type":"uint256"}],"name":"createBooking","outputs":[{"internalType":"uint256","name":"","type":"uint256"}],"stateMutability":"nonpayable","type":"function"},{"inputs":[{"internalType":"uint256","name":"_bookingId","type":"uint256"}],"name":"depositCelo","outputs":[],"stateMutability":"payable","type":"function"},{"inputs":[],"name":"escrowAdmin","outputs":[{"internalType":"address","name":"","type":"address"}],"stateMutability":"view","type":"function"},{"inputs":[{"internalType":"uint256","name":"_bookingId","type":"uint256"}],"name":"getBooking","outputs":[{"components":[{"internalType":"uint256","name":"bookingId","type":"uint256"},{"internalType":"address","name":"guest","type":"address"},{"internalType":"string","name":"accommodationId","type":"string"},{"internalType":"uint256","name":"checkIn","type":"uint256"},{"internalType":"uint256","name":"checkOut","type":"uint256"},{"internalType":"uint256","name":"totalAmount","type":"uint256"},{"internalType":"uint256","name":"depositedAmount","type":"uint256"},{"internalType":"enum BookingEscrow.BookingStatus","name":"status","type":"uint8"},{"internalType":"bool","name":"isCompleted","type":"bool"},{"internalType":"uint256","name":"createdAt","type":"uint256"},{"internalType":"uint256","name":"completedAt","type":"uint256"}],"internalType":"struct BookingEscrow.Booking","name":"","type":"tuple"}],"stateMutability":"view","type":"function"},{"inputs":[{"internalType":"address","name":"_user","type":"address"}],"name":"getBookingCount","outputs":[{"internalType":"uint256","name":"","type":"uint256"}],"stateMutability":"view","type":"function"},{"inputs":[],"name":"getContractBalance","outputs":[{"internalType":"uint256","name":"","type":"uint256"}],"stateMutability":"view","type":"function"},{"inputs":[{"internalType":"address","name":"_user","type":"address"}],"name":"getUserBookings","outputs":[{"internalType":"uint256[]","name":"","type":"uint256[]"}],"stateMutability":"view","type":"function"},{"inputs":[{"internalType":"address","name":"_user","type":"address"}],"name":"hasBookings","outputs":[{"internalType":"bool","name":"","type":"bool"}],"stateMutability":"view","type":"function"},{"inputs":[],"name":"nextBookingId","outputs":[{"internalType":"uint256","name":"","type":"uint256"}],"stateMutability":"view","type":"function"},{"inputs":[{"internalType":"address","name":"","type":"address"},{"internalType":"uint256","name":"","type":"uint256"}],"name":"userBookings","outputs":[{"internalType":"uint256","name":"","type":"uint256"}],"stateMutability":"view","type":"function"}],"evm":{"bytecode":{"linkReferences":{},"object":"60a0346100cf57601f61146738819003918201601f19168301916001600160401b038311848410176100d4578084926020946040528339810103126100cf57516001600160a01b0381168082036100cf571561008a57608052600160005560405161137c90816100eb82396080518181816103cc015281816105c901528181610c750152610e850152f35b60405162461bcd60e51b815260206004820152601560248201527f496e76616c69642061646d696e206164647265737300000000000000000000006044820152606490fd5b600080fd5b634e487b7160e01b600052604160045260246000fdfe608080604052600436101561001357600080fd5b60003560e01c9081630dfb62b714611046575080631a2b343114610e715780631dab301e14610daa57806326f20c7914610d8c5780633ca1995214610d5257806354056b6914610c5b5780636a5c841a14610a985780636f9fb98a14610a7c5780637c31854c146105f85780638761fb7c146105b3578063d27d559f14610388578063e1e04458146101ca578063e3a4d3a2146101725763ef3197c8146100b957600080fd5b3461016d5760208060031936011261016d576001600160a01b036100db61107e565b1660005260028152604060002060405190818382549182815201908192600052846000209060005b86828210610159578686610119828803836110eb565b604051928392818401908285525180915260408401929160005b82811061014257505050500390f35b835185528695509381019392810192600101610133565b835485529093019260019283019201610103565b600080fd5b3461016d57604036600319011261016d5761018b61107e565b6001600160a01b031660009081526002602052604090208054602435919082101561016d576020916101bc9161126b565b90546040519160031b1c8152f35b60208060031936011261016d5760043580600052600182526101f26040600020541515611299565b600081815260018084526040909120908101546001600160a01b0316330361034b57600781019081549060ff82166005811015610335576102fa57600581015434036102b557341561027c579060019160063491015560ff19161790557f5b063c6569a91e8133fc6cd71d31a4ca5c65c652fd53ae093f46107754f08541604051923484523393a3005b60405162461bcd60e51b81526004810186905260116024820152704d757374206465706f7369742043454c4f60781b6044820152606490fd5b60405162461bcd60e51b815260048101869052601860248201527f496e636f7272656374206465706f73697420616d6f756e7400000000000000006044820152606490fd5b60405162461bcd60e51b8152600481018690526013602482015272426f6f6b696e67206e6f742070656e64696e6760681b6044820152606490fd5b634e487b7160e01b600052602160045260246000fd5b60405162461bcd60e51b8152600481018490526015602482015274139bdd081d1a1948189bdbdada5b99c819dd595cdd605a1b6044820152606490fd5b3461016d57604036600319011261016d5760043560243567ffffffffffffffff811161016d576103bc903690600401611224565b6001600160a01b0391906103f3337f00000000000000000000000000000000000000000000000000000000000000008516146112d9565b8160005260206001815261040d6040600020541515611299565b8260005260018152604060002093600785019485549560ff8716600581101590816103355780159182156105a5575b8215610594575b50501561054f5760068201549687156104fe575090600191600460ff1982541617905501600080808089868654165af161047b611316565b50156104c957917f56c87abd8d1a6e16339a44b3b5ee9fb2b0677e93bcad3b83c25117f705eeaa4393916104c0935416956040519384936040855260408501906111d6565b918301520390a3005b60405162461bcd60e51b815260048101849052600d60248201526c1499599d5b990819985a5b1959609a1b6044820152606490fd5b6104c09497509160019160047f56c87abd8d1a6e16339a44b3b5ee9fb2b0677e93bcad3b83c25117f705eeaa4397959460ff19161790550154169460006040519384936040855260408501906111d6565b60405162461bcd60e51b815260048101859052601f60248201527f43616e6e6f742063616e63656c20636f6d706c6574656420626f6f6b696e67006044820152606490fd5b909150610335576002148880610443565b50600181149150600061043c565b3461016d57600036600319011261016d576040517f00000000000000000000000000000000000000000000000000000000000000006001600160a01b03168152602090f35b3461016d57608036600319011261016d5760043567ffffffffffffffff811161016d57610629903690600401611224565b805115610a375742602435106109f25760243560443511156109ae5760643515610969576000546000198114610953576001810160005560405161066c816110ce565b8181523360208201528260408201526024356060820152604435608082015260643560a0820152600060c0820152600060e08201526000610100820152426101208201526000610140820152816000526001602052604060002090805182556001820160018060a01b036020830151166bffffffffffffffffffffffff60a01b825416179055604081015180519067ffffffffffffffff821161086d5781906107186002860154611094565b601f8111610900575b50602090601f831160011461088e57600092610883575b50508160011b916000199060031b1c19161760028301555b606081015160038301556080810151600483015560a0810151600583015560c08101516006830155600782019060e08101519060058210156103355782610140926009945460ff61ff00610100860151151560081b1692169061ffff191617179055610120810151600885015501519101553360005260026020526040600020918254906801000000000000000082101561086d576107fa8260209560016108229501815561126b565b81549060031b9085821b91600019901b191617905583604051928284809451938492016111b3565b81010390206040516064358152602435848201526044356040820152827ff4d94a4958626629b160261536809e5f23c4ccf177273c504e46460b69dceaf960603393a4604051908152f35b634e487b7160e01b600052604160045260246000fd5b015190508680610738565b9250600285016000526020600020906000935b601f19841685106108e5576001945083601f198116106108cc575b505050811b016002830155610750565b015160001960f88460031b161c191690558680806108bc565b818101518355602094850194600190930192909101906108a1565b909150600285016000526020600020601f840160051c81016020851061094c575b90849392915b601f830160051c8201811061093d575050610721565b60008155859450600101610927565b5080610921565b634e487b7160e01b600052601160045260246000fd5b60405162461bcd60e51b815260206004820152601d60248201527f416d6f756e74206d7573742062652067726561746572207468616e20300000006044820152606490fd5b606460405162461bcd60e51b815260206004820152602060248201527f436865636b2d6f7574206d75737420626520616674657220636865636b2d696e6044820152fd5b60405162461bcd60e51b815260206004820152601a60248201527f436865636b2d696e206d75737420626520696e206675747572650000000000006044820152606490fd5b60405162461bcd60e51b815260206004820152601860248201527f496e76616c6964206163636f6d6d6f646174696f6e20494400000000000000006044820152606490fd5b3461016d57600036600319011261016d57602047604051908152f35b3461016d57602036600319011261016d576004356000610140604051610abd816110ce565b828152826020820152606060408201528260608201528260808201528260a08201528260c08201528260e082015282610100820152826101208201520152806000526001602052610b146040600020541515611299565b6000526001602052604060002060405190610b2e826110ce565b8054825260018101546001600160a01b03166020830152610b516002820161110d565b60408301526003810154606083015260048101546080830152600581015460a0830152600681015460c083015260078101549060ff821660058110156103355760099260ff9160e086015260081c161515610100840152600881015461012084015201546101408201526040518091602082528051602083015260018060a01b0360208201511660408301526040810151610140610bfd610160928360608701526101808601906111d6565b9260608101516080860152608081015160a086015260a081015160c086015260c081015160e0860152610c3960e08201516101008701906111fb565b6101008101511515610120860152610120810151828601520151908301520390f35b3461016d57602036600319011261016d57600435610ca3337f00000000000000000000000000000000000000000000000000000000000000006001600160a01b0316146112d9565b806000526001602052610cbc6040600020541515611299565b8060005260016020526007604060002001805460ff8116600581101561033557600103610d155760ff1916600217905533907f32a6eab1f4a0177609cc24472e391822aae8a497472601ef3f98523b4bc7bd31600080a3005b60405162461bcd60e51b8152602060048201526015602482015274109bdbdada5b99c81b9bdd0819195c1bdcda5d1959605a1b6044820152606490fd5b3461016d57602036600319011261016d576001600160a01b03610d7361107e565b1660005260026020526020604060002054604051908152f35b3461016d57600036600319011261016d576020600054604051908152f35b3461016d57602036600319011261016d5760043560005260016020526040600020805460018060a01b0360018301541691610de76002820161110d565b60038201549160ff60048201546005830154600684015490600785015492610e3160096008880154970154976040519b8c9b8c5260208c01526101608060408d01528b01906111d6565b9760608a0152608089015260a088015260c0870152610e5560e087018383166111fb565b60081c1615156101008501526101208401526101408301520390f35b3461016d5760208060031936011261016d577f00000000000000000000000000000000000000000000000000000000000000006001600160a01b0381169160043590610ebe3385146112d9565b8160005260018152610ed66040600020541515611299565b8160005260018152604060002060078101805460ff81166005811015610335576002036110095760ff8160081c16610fc4576000600681948294610103849561ffff1916179055426009820155015480975af1610f31611316565b5015610f8e5780827f7c216d827663830a8eaf435519e88ebb0b1c00dccaf021972073a54c9535c3da7f44578cae325142d40e20755dd70a4d16c3270e80fc8c521b5f72969e93cd2d6793604051878152a26040519384523393a4005b6064906040519062461bcd60e51b82526004820152600f60248201526e151c985b9cd9995c8819985a5b1959608a1b6044820152fd5b60405162461bcd60e51b815260048101859052601960248201527f426f6f6b696e6720616c726561647920636f6d706c65746564000000000000006044820152606490fd5b60405162461bcd60e51b8152600481018590526015602482015274109bdbdada5b99c81b9bdd0818dbdb999a5c9b5959605a1b6044820152606490fd5b3461016d57602036600319011261016d576020906001600160a01b0361106a61107e565b166000526002825260406000205415158152f35b600435906001600160a01b038216820361016d57565b90600182811c921680156110c4575b60208310146110ae57565b634e487b7160e01b600052602260045260246000fd5b91607f16916110a3565b610160810190811067ffffffffffffffff82111761086d57604052565b90601f8019910116810190811067ffffffffffffffff82111761086d57604052565b906040519182600082549261112184611094565b908184526001948581169081600014611190575060011461114d575b505061114b925003836110eb565b565b9093915060005260209081600020936000915b81831061117857505061114b9350820101388061113d565b85548884018501529485019487945091830191611160565b91505061114b94506020925060ff191682840152151560051b820101388061113d565b60005b8381106111c65750506000910152565b81810151838201526020016111b6565b906020916111ef815180928185528580860191016111b3565b601f01601f1916010190565b9060058210156103355752565b67ffffffffffffffff811161086d57601f01601f191660200190565b81601f8201121561016d5780359061123b82611208565b9261124960405194856110eb565b8284526020838301011161016d57816000926020809301838601378301015290565b80548210156112835760005260206000200190600090565b634e487b7160e01b600052603260045260246000fd5b156112a057565b60405162461bcd60e51b8152602060048201526011602482015270109bdbdada5b99c81b9bdd08199bdd5b99607a1b6044820152606490fd5b156112e057565b60405162461bcd60e51b815260206004820152600e60248201526d139bdd08185d5d1a1bdc9a5e995960921b6044820152606490fd5b3d15611341573d9061132782611208565b9161133560405193846110eb565b82523d6000602084013e565b60609056fea264697066735822122060c2f54e046b271c54ddbe7d6e2da34fdf49c77064543aebc26a2b981af1407f64736f6c63430008140033","opcodes":"PUSH1 0xA0 CALLVALUE PUSH2 0xCF JUMPI PUSH1 0x1F PUSH2 0x1467 CODESIZE DUP2 SWAP1 SUB SWAP2 DUP3 ADD PUSH1 0x1F NOT AND DUP4 ADD SWAP2 PUSH1 0x1 PUSH1 0x1 PUSH1 0x40 SHL SUB DUP4 GT DUP5 DUP5 LT OR PUSH2 0xD4 JUMPI DUP1 DUP5 SWAP3 PUSH1 0x20 SWAP5 PUSH1 0x40 MSTORE DUP4 CODECOPY DUP2 ADD SUB SLT PUSH2 0xCF JUMPI MLOAD PUSH1 0x1 PUSH1 0x1 PUSH1 0xA0 SHL SUB DUP2 AND DUP1 DUP3 SUB PUSH2 0xCF JUMPI ISZERO PUSH2 0x8A JUMPI PUSH1 0x80 MSTORE PUSH1 0x1 PUSH1 0x0 SSTORE PUSH1 0x40 MLOAD PUSH2 0x137C SWAP1 DUP2 PUSH2 0xEB DUP3 CODECOPY PUSH1 0x80 MLOAD DUP2 DUP2 DUP2 PUSH2 0x3CC ADD MSTORE DUP2 DUP2 PUSH2 0x5C9 ADD MSTORE DUP2 DUP2 PUSH2 0xC75 ADD MSTORE PUSH2 0xE85 ADD MSTORE RETURN JUMPDEST PUSH1 0x40 MLOAD PUSH3 0x461BCD PUSH1 0xE5 SHL DUP2 MSTORE PUSH1 0x20 PUSH1 0x4 DUP3 ADD MSTORE PUSH1 0x15 PUSH1 0x24 DUP3 ADD MSTORE PUSH32 0x496E76616C69642061646D696E20616464726573730000000000000000000000 PUSH1 0x44 DUP3 ADD MSTORE PUSH1 0x64 SWAP1 REVERT JUMPDEST PUSH1 0x0 DUP1 REVERT JUMPDEST PUSH4 0x4E487B71 PUSH1 0xE0 SHL PUSH1 0x0 MSTORE PUSH1 0x41 PUSH1 0x4 MSTORE PUSH1 0x24 PUSH1 0x0 REVERT INVALID PUSH1 0x80 DUP1 PUSH1 0x40 MSTORE PUSH1 0x4 CALLDATASIZE LT ISZERO PUSH2 0x13 JUMPI PUSH1 0x0 DUP1 REVERT JUMPDEST PUSH1 0x0 CALLDATALOAD PUSH1 0xE0 SHR SWAP1 DUP2 PUSH4 0xDFB62B7 EQ PUSH2 0x1046 JUMPI POP DUP1 PUSH4 0x1A2B3431 EQ PUSH2 0xE71 JUMPI DUP1 PUSH4 0x1DAB301E EQ PUSH2 0xDAA JUMPI DUP1 PUSH4 0x26F20C79 EQ PUSH2 0xD8C JUMPI DUP1 PUSH4 0x3CA19952 EQ PUSH2 0xD52 JUMPI DUP1 PUSH4 0x54056B69 EQ PUSH2 0xC5B JUMPI DUP1 PUSH4 0x6A5C841A EQ PUSH2 0xA98 JUMPI DUP1 PUSH4 0x6F9FB98A EQ PUSH2 0xA7C JUMPI DUP1 PUSH4 0x7C31854C EQ PUSH2 0x5F8 JUMPI DUP1 PUSH4 0x8761FB7C EQ PUSH2 0x5B3 JUMPI DUP1 PUSH4 0xD27D559F EQ PUSH2 0x388 JUMPI DUP1 PUSH4 0xE1E04458 EQ PUSH2 0x1CA JUMPI DUP1 PUSH4 0xE3A4D3A2 EQ PUSH2 0x172 JUMPI PUSH4 0xEF3197C8 EQ PUSH2 0xB9 JUMPI PUSH1 0x0 DUP1 REVERT JUMPDEST CALLVALUE PUSH2 0x16D JUMPI PUSH1 0x20 DUP1 PUSH1 0x3 NOT CALLDATASIZE ADD SLT PUSH2 0x16D JUMPI PUSH1 0x1 PUSH1 0x1 PUSH1 0xA0 SHL SUB PUSH2 0xDB PUSH2 0x107E JUMP JUMPDEST AND PUSH1 0x0 MSTORE PUSH1 0x2 DUP2 MSTORE PUSH1 0x40 PUSH1 0x0 KECCAK256 PUSH1 0x40 MLOAD SWAP1 DUP2 DUP4 DUP3 SLOAD SWAP2 DUP3 DUP2 MSTORE ADD SWAP1 DUP2 SWAP3 PUSH1 0x0 MSTORE DUP5 PUSH1 0x0 KECCAK256 SWAP1 PUSH1 0x0 JUMPDEST DUP7 DUP3 DUP3 LT PUSH2 0x159 JUMPI DUP7 DUP7 PUSH2 0x119 DUP3 DUP9 SUB DUP4 PUSH2 0x10EB JUMP JUMPDEST PUSH1 0x40 MLOAD SWAP3 DUP4 SWAP3 DUP2 DUP5 ADD SWAP1 DUP3 DUP6 MSTORE MLOAD DUP1 SWAP2 MSTORE PUSH1 0x40 DUP5 ADD SWAP3 SWAP2 PUSH1 0x0 JUMPDEST DUP3 DUP2 LT PUSH2 0x142 JUMPI POP POP POP POP SUB SWAP1 RETURN JUMPDEST DUP4 MLOAD DUP6 MSTORE DUP7 SWAP6 POP SWAP4 DUP2 ADD SWAP4 SWAP3 DUP2 ADD SWAP3 PUSH1 0x1 ADD PUSH2 0x133 JUMP JUMPDEST DUP4 SLOAD DUP6 MSTORE SWAP1 SWAP4 ADD SWAP3 PUSH1 0x1 SWAP3 DUP4 ADD SWAP3 ADD PUSH2 0x103 JUMP JUMPDEST PUSH1 0x0 DUP1 REVERT JUMPDEST CALLVALUE PUSH2 0x16D JUMPI PUSH1 0x40 CALLDATASIZE PUSH1 0x3 NOT ADD SLT PUSH2 0x16D JUMPI PUSH2 0x18B PUSH2 0x107E JUMP JUMPDEST PUSH1 0x1 PUSH1 0x1 PUSH1 0xA0 SHL SUB AND PUSH1 0x0 SWAP1 DUP2 MSTORE PUSH1 0x2 PUSH1 0x20 MSTORE PUSH1 0x40 SWAP1 KECCAK256 DUP1 SLOAD PUSH1 0x24 CALLDATALOAD SWAP2 SWAP1 DUP3 LT ISZERO PUSH2 0x16D JUMPI PUSH1 0x20 SWAP2 PUSH2 0x1BC SWAP2 PUSH2 0x126B JUMP JUMPDEST SWAP1 SLOAD PUSH1 0x40 MLOAD SWAP2 PUSH1 0x3 SHL SHR DUP2 MSTORE RETURN JUMPDEST PUSH1 0x20 DUP1 PUSH1 0x3 NOT CALLDATASIZE ADD SLT PUSH2 0x16D JUMPI PUSH1 0x4 CALLDATALOAD DUP1 PUSH1 0x0 MSTORE PUSH1 0x1 DUP3 MSTORE PUSH2 0x1F2 PUSH1 0x40 PUSH1 0x0 KECCAK256 SLOAD ISZERO ISZERO PUSH2 0x1299 JUMP JUMPDEST PUSH1 0x0 DUP2 DUP2 MSTORE PUSH1 0x1 DUP1 DUP5 MSTORE PUSH1 0x40 SWAP1 SWAP2 KECCAK256 SWAP1 DUP2 ADD SLOAD PUSH1 0x1 PUSH1 0x1 PUSH1 0xA0 SHL SUB AND CALLER SUB PUSH2 0x34B JUMPI PUSH1 0x7 DUP2 ADD SWAP1 DUP2 SLOAD SWAP1 PUSH1 0xFF DUP3 AND PUSH1 0x5 DUP2 LT ISZERO PUSH2 0x335 JUMPI PUSH2 0x2FA JUMPI PUSH1 0x5 DUP2 ADD SLOAD CALLVALUE SUB PUSH2 0x2B5 JUMPI CALLVALUE ISZERO PUSH2 0x27C JUMPI SWAP1 PUSH1 0x1 SWAP2 PUSH1 0x6 CALLVALUE SWAP2 ADD SSTORE PUSH1 0xFF NOT AND OR SWAP1 SSTORE PUSH32 0x5B063C6569A91E8133FC6CD71D31A4CA5C65C652FD53AE093F46107754F08541 PUSH1 0x40 MLOAD SWAP3 CALLVALUE DUP5 MSTORE CALLER SWAP4 LOG3 STOP JUMPDEST PUSH1 0x40 MLOAD PUSH3 0x461BCD PUSH1 0xE5 SHL DUP2 MSTORE PUSH1 0x4 DUP2 ADD DUP7 SWAP1 MSTORE PUSH1 0x11 PUSH1 0x24 DUP3 ADD MSTORE PUSH17 0x4D757374206465706F7369742043454C4F PUSH1 0x78 SHL PUSH1 0x44 DUP3 ADD MSTORE PUSH1 0x64 SWAP1 REVERT JUMPDEST PUSH1 0x40 MLOAD PUSH3 0x461BCD PUSH1 0xE5 SHL DUP2 MSTORE PUSH1 0x4 DUP2 ADD DUP7 SWAP1 MSTORE PUSH1 0x18 PUSH1 0x24 DUP3 ADD MSTORE PUSH32 0x496E636F7272656374206465706F73697420616D6F756E740000000000000000 PUSH1 0x44 DUP3 ADD MSTORE PUSH1 0x64 SWAP1 REVERT JUMPDEST PUSH1 0x40 MLOAD PUSH3 0x461BCD PUSH1 0xE5 SHL DUP2 MSTORE PUSH1 0x4 DUP2 ADD DUP7 SWAP1 MSTORE PUSH1 0x13 PUSH1 0x24 DUP3 ADD MSTORE PUSH19 0x426F6F6B696E67206E6F742070656E64696E67 PUSH1 0x68 SHL PUSH1 0x44 DUP3 ADD MSTORE PUSH1 0x64 SWAP1 REVERT JUMPDEST PUSH4 0x4E487B71 PUSH1 0xE0 SHL PUSH1 0x0 MSTORE PUSH1 0x21 PUSH1 0x4 MSTORE PUSH1 0x24 PUSH1 0x0 REVERT JUMPDEST PUSH1 0x40 MLOAD PUSH3 0x461BCD PUSH1 0xE5 SHL DUP2 MSTORE PUSH1 0x4 DUP2 ADD DUP5 SWAP1 MSTORE PUSH1 0x15 PUSH1 0x24 DUP3 ADD MSTORE PUSH21 0x139BDD081D1A1948189BDBDADA5B99C819DD595CDD PUSH1 0x5A SHL PUSH1 0x44 DUP3 ADD MSTORE PUSH1 0x64 SWAP1 REVERT JUMPDEST CALLVALUE PUSH2 0x16D JUMPI PUSH1 0x40 CALLDATASIZE PUSH1 0x3 NOT ADD SLT PUSH2 0x16D JUMPI PUSH1 0x4 CALLDATALOAD PUSH1 0x24 CALLDATALOAD PUSH8 0xFFFFFFFFFFFFFFFF DUP2 GT PUSH2 0x16D JUMPI PUSH2 0x3BC SWAP1 CALLDATASIZE SWAP1 PUSH1 0x4 ADD PUSH2 0x1224 JUMP JUMPDEST PUSH1 0x1 PUSH1 0x1 PUSH1 0xA0 SHL SUB SWAP2 SWAP1 PUSH2 0x3F3 CALLER PUSH32 0x0 DUP6 AND EQ PUSH2 0x12D9 JUMP JUMPDEST DUP2 PUSH1 0x0 MSTORE PUSH1 0x20 PUSH1 0x1 DUP2 MSTORE PUSH2 0x40D PUSH1 0x40 PUSH1 0x0 KECCAK256 SLOAD ISZERO ISZERO PUSH2 0x1299 JUMP JUMPDEST DUP3 PUSH1 0x0 MSTORE PUSH1 0x1 DUP2 MSTORE PUSH1 0x40 PUSH1 0x0 KECCAK256 SWAP4 PUSH1 0x7 DUP6 ADD SWAP5 DUP6 SLOAD SWAP6 PUSH1 0xFF DUP8 AND PUSH1 0x5 DUP2 LT ISZERO SWAP1 DUP2 PUSH2 0x335 JUMPI DUP1 ISZERO SWAP2 DUP3 ISZERO PUSH2 0x5A5 JUMPI JUMPDEST DUP3 ISZERO PUSH2 0x594 JUMPI JUMPDEST POP POP ISZERO PUSH2 0x54F JUMPI PUSH1 0x6 DUP3 ADD SLOAD SWAP7 DUP8 ISZERO PUSH2 0x4FE JUMPI POP SWAP1 PUSH1 0x1 SWAP2 PUSH1 0x4 PUSH1 0xFF NOT DUP3 SLOAD AND OR SWAP1 SSTORE ADD PUSH1 0x0 DUP1 DUP1 DUP1 DUP10 DUP7 DUP7 SLOAD AND GAS CALL PUSH2 0x47B PUSH2 0x1316 JUMP JUMPDEST POP ISZERO PUSH2 0x4C9 JUMPI SWAP2 PUSH32 0x56C87ABD8D1A6E16339A44B3B5EE9FB2B0677E93BCAD3B83C25117F705EEAA43 SWAP4 SWAP2 PUSH2 0x4C0 SWAP4 SLOAD AND SWAP6 PUSH1 0x40 MLOAD SWAP4 DUP5 SWAP4 PUSH1 0x40 DUP6 MSTORE PUSH1 0x40 DUP6 ADD SWAP1 PUSH2 0x11D6 JUMP JUMPDEST SWAP2 DUP4 ADD MSTORE SUB SWAP1 LOG3 STOP JUMPDEST PUSH1 0x40 MLOAD PUSH3 0x461BCD PUSH1 0xE5 SHL DUP2 MSTORE PUSH1 0x4 DUP2 ADD DUP5 SWAP1 MSTORE PUSH1 0xD PUSH1 0x24 DUP3 ADD MSTORE PUSH13 0x1499599D5B990819985A5B1959 PUSH1 0x9A SHL PUSH1 0x44 DUP3 ADD MSTORE PUSH1 0x64 SWAP1 REVERT JUMPDEST PUSH2 0x4C0 SWAP5 SWAP8 POP SWAP2 PUSH1 0x1 SWAP2 PUSH1 0x4 PUSH32 0x56C87ABD8D1A6E16339A44B3B5EE9FB2B0677E93BCAD3B83C25117F705EEAA43 SWAP8 SWAP6 SWAP5 PUSH1 0xFF NOT AND OR SWAP1 SSTORE ADD SLOAD AND SWAP5 PUSH1 0x0 PUSH1 0x40 MLOAD SWAP4 DUP5 SWAP4 PUSH1 0x40 DUP6 MSTORE PUSH1 0x40 DUP6 ADD SWAP1 PUSH2 0x11D6 JUMP JUMPDEST PUSH1 0x40 MLOAD PUSH3 0x461BCD PUSH1 0xE5 SHL DUP2 MSTORE PUSH1 0x4 DUP2 ADD DUP6 SWAP1 MSTORE PUSH1 0x1F PUSH1 0x24 DUP3 ADD MSTORE PUSH32 0x43616E6E6F742063616E63656C20636F6D706C6574656420626F6F6B696E6700 PUSH1 0x44 DUP3 ADD MSTORE PUSH1 0x64 SWAP1 REVERT JUMPDEST SWAP1 SWAP2 POP PUSH2 0x335 JUMPI PUSH1 0x2 EQ DUP9 DUP1 PUSH2 0x443 JUMP JUMPDEST POP PUSH1 0x1 DUP2 EQ SWAP2 POP PUSH1 0x0 PUSH2 0x43C JUMP JUMPDEST CALLVALUE PUSH2 0x16D JUMPI PUSH1 0x0 CALLDATASIZE PUSH1 0x3 NOT ADD SLT PUSH2 0x16D JUMPI PUSH1 0x40 MLOAD PUSH32 0x0 PUSH1 0x1 PUSH1 0x1 PUSH1 0xA0 SHL SUB AND DUP2 MSTORE PUSH1 0x20 SWAP1 RETURN JUMPDEST CALLVALUE PUSH2 0x16D JUMPI PUSH1 0x80 CALLDATASIZE PUSH1 0x3 NOT ADD SLT PUSH2 0x16D JUMPI PUSH1 0x4 CALLDATALOAD PUSH8 0xFFFFFFFFFFFFFFFF DUP2 GT PUSH2 0x16D JUMPI PUSH2 0x629 SWAP1 CALLDATASIZE SWAP1 PUSH1 0x4 ADD PUSH2 0x1224 JUMP JUMPDEST DUP1 MLOAD ISZERO PUSH2 0xA37 JUMPI TIMESTAMP PUSH1 0x24 CALLDATALOAD LT PUSH2 0x9F2 JUMPI PUSH1 0x24 CALLDATALOAD PUSH1 0x44 CALLDATALOAD GT ISZERO PUSH2 0x9AE JUMPI PUSH1 0x64 CALLDATALOAD ISZERO PUSH2 0x969 JUMPI PUSH1 0x0 SLOAD PUSH1 0x0 NOT DUP2 EQ PUSH2 0x953 JUMPI PUSH1 0x1 DUP2 ADD PUSH1 0x0 SSTORE PUSH1 0x40 MLOAD PUSH2 0x66C DUP2 PUSH2 0x10CE JUMP JUMPDEST DUP2 DUP2 MSTORE CALLER PUSH1 0x20 DUP3 ADD MSTORE DUP3 PUSH1 0x40 DUP3 ADD MSTORE PUSH1 0x24 CALLDATALOAD PUSH1 0x60 DUP3 ADD MSTORE PUSH1 0x44 CALLDATALOAD PUSH1 0x80 DUP3 ADD MSTORE PUSH1 0x64 CALLDATALOAD PUSH1 0xA0 DUP3 ADD MSTORE PUSH1 0x0 PUSH1 0xC0 DUP3 ADD MSTORE PUSH1 0x0 PUSH1 0xE0 DUP3 ADD MSTORE PUSH1 0x0 PUSH2 0x100 DUP3 ADD MSTORE TIMESTAMP PUSH2 0x120 DUP3 ADD MSTORE PUSH1 0x0 PUSH2 0x140 DUP3 ADD MSTORE DUP2 PUSH1 0x0 MSTORE PUSH1 0x1 PUSH1 0x20 MSTORE PUSH1 0x40 PUSH1 0x0 KECCAK256 SWAP1 DUP1 MLOAD DUP3 SSTORE PUSH1 0x1 DUP3 ADD PUSH1 0x1 DUP1 PUSH1 0xA0 SHL SUB PUSH1 0x20 DUP4 ADD MLOAD AND PUSH12 0xFFFFFFFFFFFFFFFFFFFFFFFF PUSH1 0xA0 SHL DUP3 SLOAD AND OR SWAP1 SSTORE PUSH1 0x40 DUP2 ADD MLOAD DUP1 MLOAD SWAP1 PUSH8 0xFFFFFFFFFFFFFFFF DUP3 GT PUSH2 0x86D JUMPI DUP2 SWAP1 PUSH2 0x718 PUSH1 0x2 DUP7 ADD SLOAD PUSH2 0x1094 JUMP JUMPDEST PUSH1 0x1F DUP2 GT PUSH2 0x900 JUMPI JUMPDEST POP PUSH1 0x20 SWAP1 PUSH1 0x1F DUP4 GT PUSH1 0x1 EQ PUSH2 0x88E JUMPI PUSH1 0x0 SWAP3 PUSH2 0x883 JUMPI JUMPDEST POP POP DUP2 PUSH1 0x1 SHL SWAP2 PUSH1 0x0 NOT SWAP1 PUSH1 0x3 SHL SHR NOT AND OR PUSH1 0x2 DUP4 ADD SSTORE JUMPDEST PUSH1 0x60 DUP2 ADD MLOAD PUSH1 0x3 DUP4 ADD SSTORE PUSH1 0x80 DUP2 ADD MLOAD PUSH1 0x4 DUP4 ADD SSTORE PUSH1 0xA0 DUP2 ADD MLOAD PUSH1 0x5 DUP4 ADD SSTORE PUSH1 0xC0 DUP2 ADD MLOAD PUSH1 0x6 DUP4 ADD SSTORE PUSH1 0x7 DUP3 ADD SWAP1 PUSH1 0xE0 DUP2 ADD MLOAD SWAP1 PUSH1 0x5 DUP3 LT ISZERO PUSH2 0x335 JUMPI DUP3 PUSH2 0x140 SWAP3 PUSH1 0x9 SWAP5 SLOAD PUSH1 0xFF PUSH2 0xFF00 PUSH2 0x100 DUP7 ADD MLOAD ISZERO ISZERO PUSH1 0x8 SHL AND SWAP3 AND SWAP1 PUSH2 0xFFFF NOT AND OR OR SWAP1 SSTORE PUSH2 0x120 DUP2 ADD MLOAD PUSH1 0x8 DUP6 ADD SSTORE ADD MLOAD SWAP2 ADD SSTORE CALLER PUSH1 0x0 MSTORE PUSH1 0x2 PUSH1 0x20 MSTORE PUSH1 0x40 PUSH1 0x0 KECCAK256 SWAP2 DUP3 SLOAD SWAP1 PUSH9 0x10000000000000000 DUP3 LT ISZERO PUSH2 0x86D JUMPI PUSH2 0x7FA DUP3 PUSH1 0x20 SWAP6 PUSH1 0x1 PUSH2 0x822 SWAP6 ADD DUP2 SSTORE PUSH2 0x126B JUMP JUMPDEST DUP2 SLOAD SWAP1 PUSH1 0x3 SHL SWAP1 DUP6 DUP3 SHL SWAP2 PUSH1 0x0 NOT SWAP1 SHL NOT AND OR SWAP1 SSTORE DUP4 PUSH1 0x40 MLOAD SWAP3 DUP3 DUP5 DUP1 SWAP5 MLOAD SWAP4 DUP5 SWAP3 ADD PUSH2 0x11B3 JUMP JUMPDEST DUP2 ADD SUB SWAP1 KECCAK256 PUSH1 0x40 MLOAD PUSH1 0x64 CALLDATALOAD DUP2 MSTORE PUSH1 0x24 CALLDATALOAD DUP5 DUP3 ADD MSTORE PUSH1 0x44 CALLDATALOAD PUSH1 0x40 DUP3 ADD MSTORE DUP3 PUSH32 0xF4D94A4958626629B160261536809E5F23C4CCF177273C504E46460B69DCEAF9 PUSH1 0x60 CALLER SWAP4 LOG4 PUSH1 0x40 MLOAD SWAP1 DUP2 MSTORE RETURN JUMPDEST PUSH4 0x4E487B71 PUSH1 0xE0 SHL PUSH1 0x0 MSTORE PUSH1 0x41 PUSH1 0x4 MSTORE PUSH1 0x24 PUSH1 0x0 REVERT JUMPDEST ADD MLOAD SWAP1 POP DUP7 DUP1 PUSH2 0x738 JUMP JUMPDEST SWAP3 POP PUSH1 0x2 DUP6 ADD PUSH1 0x0 MSTORE PUSH1 0x20 PUSH1 0x0 KECCAK256 SWAP1 PUSH1 0x0 SWAP4 JUMPDEST PUSH1 0x1F NOT DUP5 AND DUP6 LT PUSH2 0x8E5 JUMPI PUSH1 0x1 SWAP5 POP DUP4 PUSH1 0x1F NOT DUP2 AND LT PUSH2 0x8CC JUMPI JUMPDEST POP POP POP DUP2 SHL ADD PUSH1 0x2 DUP4 ADD SSTORE PUSH2 0x750 JUMP JUMPDEST ADD MLOAD PUSH1 0x0 NOT PUSH1 0xF8 DUP5 PUSH1 0x3 SHL AND SHR NOT AND SWAP1 SSTORE DUP7 DUP1 DUP1 PUSH2 0x8BC JUMP JUMPDEST DUP2 DUP2 ADD MLOAD DUP4 SSTORE PUSH1 0x20 SWAP5 DUP6 ADD SWAP5 PUSH1 0x1 SWAP1 SWAP4 ADD SWAP3 SWAP1 SWAP2 ADD SWAP1 PUSH2 0x8A1 JUMP JUMPDEST SWAP1 SWAP2 POP PUSH1 0x2 DUP6 ADD PUSH1 0x0 MSTORE PUSH1 0x20 PUSH1 0x0 KECCAK256 PUSH1 0x1F DUP5 ADD PUSH1 0x5 SHR DUP2 ADD PUSH1 0x20 DUP6 LT PUSH2 0x94C JUMPI JUMPDEST SWAP1 DUP5 SWAP4 SWAP3 SWAP2 JUMPDEST PUSH1 0x1F DUP4 ADD PUSH1 0x5 SHR DUP3 ADD DUP2 LT PUSH2 0x93D JUMPI POP POP PUSH2 0x721 JUMP JUMPDEST PUSH1 0x0 DUP2 SSTORE DUP6 SWAP5 POP PUSH1 0x1 ADD PUSH2 0x927 JUMP JUMPDEST POP DUP1 PUSH2 0x921 JUMP JUMPDEST PUSH4 0x4E487B71 PUSH1 0xE0 SHL PUSH1 0x0 MSTORE PUSH1 0x11 PUSH1 0x4 MSTORE PUSH1 0x24 PUSH1 0x0 REVERT JUMPDEST PUSH1 0x40 MLOAD PUSH3 0x461BCD PUSH1 0xE5 SHL DUP2 MSTORE PUSH1 0x20 PUSH1 0x4 DUP3 ADD MSTORE PUSH1 0x1D PUSH1 0x24 DUP3 ADD MSTORE PUSH32 0x416D6F756E74206D7573742062652067726561746572207468616E2030000000 PUSH1 0x44 DUP3 ADD MSTORE PUSH1 0x64 SWAP1 REVERT JUMPDEST PUSH1 0x64 PUSH1 0x40 MLOAD PUSH3 0x461BCD PUSH1 0xE5 SHL DUP2 MSTORE PUSH1 0x20 PUSH1 0x4 DUP3 ADD MSTORE PUSH1 0x20 PUSH1 0x24 DUP3 ADD MSTORE PUSH32 0x436865636B2D6F7574206D75737420626520616674657220636865636B2D696E PUSH1 0x44 DUP3 ADD MSTORE REVERT JUMPDEST PUSH1 0x40 MLOAD PUSH3 0x461BCD PUSH1 0xE5 SHL DUP2 MSTORE PUSH1 0x20 PUSH1 0x4 DUP3 ADD MSTORE PUSH1 0x1A PUSH1 0x24 DUP3 ADD MSTORE PUSH32 0x436865636B2D696E206D75737420626520696E20667574757265000000000000 PUSH1 0x44 DUP3 ADD MSTORE PUSH1 0x64 SWAP1 REVERT JUMPDEST PUSH1 0x40 MLOAD PUSH3 0x461BCD PUSH1 0xE5 SHL DUP2 MSTORE PUSH1 0x20 PUSH1 0x4 DUP3 ADD MSTORE PUSH1 0x18 PUSH1 0x24 DUP3 ADD MSTORE PUSH32 0x496E76616C6964206163636F6D6D6F646174696F6E2049440000000000000000 PUSH1 0x44 DUP3 ADD MSTORE PUSH1 0x64 SWAP1 REVERT JUMPDEST CALLVALUE PUSH2 0x16D JUMPI PUSH1 0x0 CALLDATASIZE PUSH1 0x3 NOT ADD SLT PUSH2 0x16D JUMPI PUSH1 0x20 SELFBALANCE PUSH1 0x40 MLOAD SWAP1 DUP2 MSTORE RETURN JUMPDEST CALLVALUE PUSH2 0x16D JUMPI PUSH1 0x20 CALLDATASIZE PUSH1 0x3 NOT ADD SLT PUSH2 0x16D JUMPI PUSH1 0x4 CALLDATALOAD PUSH1 0x0 PUSH2 0x140 PUSH1 0x40 MLOAD PUSH2 0xABD DUP2 PUSH2 0x10CE JUMP JUMPDEST DUP3 DUP2 MSTORE DUP3 PUSH1 0x20 DUP3 ADD MSTORE PUSH1 0x60 PUSH1 0x40 DUP3 ADD MSTORE DUP3 PUSH1 0x60 DUP3 ADD MSTORE DUP3 PUSH1 0x80 DUP3 ADD MSTORE DUP3 PUSH1 0xA0 DUP3 ADD MSTORE DUP3 PUSH1 0xC0 DUP3 ADD MSTORE DUP3 PUSH1 0xE0 DUP3 ADD MSTORE DUP3 PUSH2 0x100 DUP3 ADD MSTORE DUP3 PUSH2 0x120 DUP3 ADD MSTORE ADD MSTORE DUP1 PUSH1 0x0 MSTORE PUSH1 0x1 PUSH1 0x20 MSTORE PUSH2 0xB14 PUSH1 0x40 PUSH1 0x0 KECCAK256 SLOAD ISZERO ISZERO PUSH2 0x1299 JUMP JUMPDEST PUSH1 0x0 MSTORE PUSH1 0x1 PUSH1 0x20 MSTORE PUSH1 0x40 PUSH1 0x0 KECCAK256 PUSH1 0x40 MLOAD SWAP1 PUSH2 0xB2E DUP3 PUSH2 0x10CE JUMP JUMPDEST DUP1 SLOAD DUP3 MSTORE PUSH1 0x1 DUP2 ADD SLOAD PUSH1 0x1 PUSH1 0x1 PUSH1 0xA0 SHL SUB AND PUSH1 0x20 DUP4 ADD MSTORE PUSH2 0xB51 PUSH1 0x2 DUP3 ADD PUSH2 0x110D JUMP JUMPDEST PUSH1 0x40 DUP4 ADD MSTORE PUSH1 0x3 DUP2 ADD SLOAD PUSH1 0x60 DUP4 ADD MSTORE PUSH1 0x4 DUP2 ADD SLOAD PUSH1 0x80 DUP4 ADD MSTORE PUSH1 0x5 DUP2 ADD SLOAD PUSH1 0xA0 DUP4 ADD MSTORE PUSH1 0x6 DUP2 ADD SLOAD PUSH1 0xC0 DUP4 ADD MSTORE PUSH1 0x7 DUP2 ADD SLOAD SWAP1 PUSH1 0xFF DUP3 AND PUSH1 0x5 DUP2 LT ISZERO PUSH2 0x335 JUMPI PUSH1 0x9 SWAP3 PUSH1 0xFF SWAP2 PUSH1 0xE0 DUP7 ADD MSTORE PUSH1 0x8 SHR AND ISZERO ISZERO PUSH2 0x100 DUP5 ADD MSTORE PUSH1 0x8 DUP2 ADD SLOAD PUSH2 0x120 DUP5 ADD MSTORE ADD SLOAD PUSH2 0x140 DUP3 ADD MSTORE PUSH1 0x40 MLOAD DUP1 SWAP2 PUSH1 0x20 DUP3 MSTORE DUP1 MLOAD PUSH1 0x20 DUP4 ADD MSTORE PUSH1 0x1 DUP1 PUSH1 0xA0 SHL SUB PUSH1 0x20 DUP3 ADD MLOAD AND PUSH1 0x40 DUP4 ADD MSTORE PUSH1 0x40 DUP2 ADD MLOAD PUSH2 0x140 PUSH2 0xBFD PUSH2 0x160 SWAP3 DUP4 PUSH1 0x60 DUP8 ADD MSTORE PUSH2 0x180 DUP7 ADD SWAP1 PUSH2 0x11D6 JUMP JUMPDEST SWAP3 PUSH1 0x60 DUP2 ADD MLOAD PUSH1 0x80 DUP7 ADD MSTORE PUSH1 0x80 DUP2 ADD MLOAD PUSH1 0xA0 DUP7 ADD MSTORE PUSH1 0xA0 DUP2 ADD MLOAD PUSH1 0xC0 DUP7 ADD MSTORE PUSH1 0xC0 DUP2 ADD MLOAD PUSH1 0xE0 DUP7 ADD MSTORE PUSH2 0xC39 PUSH1 0xE0 DUP3 ADD MLOAD PUSH2 0x100 DUP8 ADD SWAP1 PUSH2 0x11FB JUMP JUMPDEST PUSH2 0x100 DUP2 ADD MLOAD ISZERO ISZERO PUSH2 0x120 DUP7 ADD MSTORE PUSH2 0x120 DUP2 ADD MLOAD DUP3 DUP7 ADD MSTORE ADD MLOAD SWAP1 DUP4 ADD MSTORE SUB SWAP1 RETURN JUMPDEST CALLVALUE PUSH2 0x16D JUMPI PUSH1 0x20 CALLDATASIZE PUSH1 0x3 NOT ADD SLT PUSH2 0x16D JUMPI PUSH1 0x4 CALLDATALOAD PUSH2 0xCA3 CALLER PUSH32 0x0 PUSH1 0x1 PUSH1 0x1 PUSH1 0xA0 SHL SUB AND EQ PUSH2 0x12D9 JUMP JUMPDEST DUP1 PUSH1 0x0 MSTORE PUSH1 0x1 PUSH1 0x20 MSTORE PUSH2 0xCBC PUSH1 0x40 PUSH1 0x0 KECCAK256 SLOAD ISZERO ISZERO PUSH2 0x1299 JUMP JUMPDEST DUP1 PUSH1 0x0 MSTORE PUSH1 0x1 PUSH1 0x20 MSTORE PUSH1 0x7 PUSH1 0x40 PUSH1 0x0 KECCAK256 ADD DUP1 SLOAD PUSH1 0xFF DUP2 AND PUSH1 0x5 DUP2 LT ISZERO PUSH2 0x335 JUMPI PUSH1 0x1 SUB PUSH2 0xD15 JUMPI PUSH1 0xFF NOT AND PUSH1 0x2 OR SWAP1 SSTORE CALLER SWAP1 PUSH32 0x32A6EAB1F4A0177609CC24472E391822AAE8A497472601EF3F98523B4BC7BD31 PUSH1 0x0 DUP1 LOG3 STOP JUMPDEST PUSH1 0x40 MLOAD PUSH3 0x461BCD PUSH1 0xE5 SHL DUP2 MSTORE PUSH1 0x20 PUSH1 0x4 DUP3 ADD MSTORE PUSH1 0x15 PUSH1 0x24 DUP3 ADD MSTORE PUSH21 0x109BDBDADA5B99C81B9BDD0819195C1BDCDA5D1959 PUSH1 0x5A SHL PUSH1 0x44 DUP3 ADD MSTORE PUSH1 0x64 SWAP1 REVERT JUMPDEST CALLVALUE PUSH2 0x16D JUMPI PUSH1 0x20 CALLDATASIZE PUSH1 0x3 NOT ADD SLT PUSH2 0x16D JUMPI PUSH1 0x1 PUSH1 0x1 PUSH1 0xA0 SHL SUB PUSH2 0xD73 PUSH2 0x107E JUMP JUMPDEST AND PUSH1 0x0 MSTORE PUSH1 0x2 PUSH1 0x20 MSTORE PUSH1 0x20 PUSH1 0x40 PUSH1 0x0 KECCAK256 SLOAD PUSH1 0x40 MLOAD SWAP1 DUP2 MSTORE RETURN JUMPDEST CALLVALUE PUSH2 0x16D JUMPI PUSH1 0x0 CALLDATASIZE PUSH1 0x3 NOT ADD SLT PUSH2 0x16D JUMPI PUSH1 0x20 PUSH1 0x0 SLOAD PUSH1 0x40 MLOAD SWAP1 DUP2 MSTORE RETURN JUMPDEST CALLVALUE PUSH2 0x16D JUMPI PUSH1 0x20 CALLDATASIZE PUSH1 0x3 NOT ADD SLT PUSH2 0x16D JUMPI PUSH1 0x4 CALLDATALOAD PUSH1 0x0 MSTORE PUSH1 0x1 PUSH1 0x20 MSTORE PUSH1 0x40 PUSH1 0x0 KECCAK256 DUP1 SLOAD PUSH1 0x1 DUP1 PUSH1 0xA0 SHL SUB PUSH1 0x1 DUP4 ADD SLOAD AND SWAP2 PUSH2 0xDE7 PUSH1 0x2 DUP3 ADD PUSH2 0x110D JUMP JUMPDEST PUSH1 0x3 DUP3 ADD SLOAD SWAP2 PUSH1 0xFF PUSH1 0x4 DUP3 ADD SLOAD PUSH1 0x5 DUP4 ADD SLOAD PUSH1 0x6 DUP5 ADD SLOAD SWAP1 PUSH1 0x7 DUP6 ADD SLOAD SWAP3 PUSH2 0xE31 PUSH1 0x9 PUSH1 0x8 DUP9 ADD SLOAD SWAP8 ADD SLOAD SWAP8 PUSH1 0x40 MLOAD SWAP12 DUP13 SWAP12 DUP13 MSTORE PUSH1 0x20 DUP13 ADD MSTORE PUSH2 0x160 DUP1 PUSH1 0x40 DUP14 ADD MSTORE DUP12 ADD SWAP1 PUSH2 0x11D6 JUMP JUMPDEST SWAP8 PUSH1 0x60 DUP11 ADD MSTORE PUSH1 0x80 DUP10 ADD MSTORE PUSH1 0xA0 DUP9 ADD MSTORE PUSH1 0xC0 DUP8 ADD MSTORE PUSH2 0xE55 PUSH1 0xE0 DUP8 ADD DUP4 DUP4 AND PUSH2 0x11FB JUMP JUMPDEST PUSH1 0x8 SHR AND ISZERO ISZERO PUSH2 0x100 DUP6 ADD MSTORE PUSH2 0x120 DUP5 ADD MSTORE PUSH2 0x140 DUP4 ADD MSTORE SUB SWAP1 RETURN JUMPDEST CALLVALUE PUSH2 0x16D JUMPI PUSH1 0x20 DUP1 PUSH1 0x3 NOT CALLDATASIZE ADD SLT PUSH2 0x16D JUMPI PUSH32 0x0 PUSH1 0x1 PUSH1 0x1 PUSH1 0xA0 SHL SUB DUP2 AND SWAP2 PUSH1 0x4 CALLDATALOAD SWAP1 PUSH2 0xEBE CALLER DUP6 EQ PUSH2 0x12D9 JUMP JUMPDEST DUP2 PUSH1 0x0 MSTORE PUSH1 0x1 DUP2 MSTORE PUSH2 0xED6 PUSH1 0x40 PUSH1 0x0 KECCAK256 SLOAD ISZERO ISZERO PUSH2 0x1299 JUMP JUMPDEST DUP2 PUSH1 0x0 MSTORE PUSH1 0x1 DUP2 MSTORE PUSH1 0x40 PUSH1 0x0 KECCAK256 PUSH1 0x7 DUP2 ADD DUP1 SLOAD PUSH1 0xFF DUP2 AND PUSH1 0x5 DUP2 LT ISZERO PUSH2 0x335 JUMPI PUSH1 0x2 SUB PUSH2 0x1009 JUMPI PUSH1 0xFF DUP2 PUSH1 0x8 SHR AND PUSH2 0xFC4 JUMPI PUSH1 0x0 PUSH1 0x6 DUP2 SWAP5 DUP3 SWAP5 PUSH2 0x103 DUP5 SWAP6 PUSH2 0xFFFF NOT AND OR SWAP1 SSTORE TIMESTAMP PUSH1 0x9 DUP3 ADD SSTORE ADD SLOAD DUP1 SWAP8 GAS CALL PUSH2 0xF31 PUSH2 0x1316 JUMP JUMPDEST POP ISZERO PUSH2 0xF8E JUMPI DUP1 DUP3 PUSH32 0x7C216D827663830A8EAF435519E88EBB0B1C00DCCAF021972073A54C9535C3DA PUSH32 0x44578CAE325142D40E20755DD70A4D16C3270E80FC8C521B5F72969E93CD2D67 SWAP4 PUSH1 0x40 MLOAD DUP8 DUP2 MSTORE LOG2 PUSH1 0x40 MLOAD SWAP4 DUP5 MSTORE CALLER SWAP4 LOG4 STOP JUMPDEST PUSH1 0x64 SWAP1 PUSH1 0x40 MLOAD SWAP1 PUSH3 0x461BCD PUSH1 0xE5 SHL DUP3 MSTORE PUSH1 0x4 DUP3 ADD MSTORE PUSH1 0xF PUSH1 0x24 DUP3 ADD MSTORE PUSH15 0x151C985B9CD9995C8819985A5B1959 PUSH1 0x8A SHL PUSH1 0x44 DUP3 ADD MSTORE REVERT JUMPDEST PUSH1 0x40 MLOAD PUSH3 0x461BCD PUSH1 0xE5 SHL DUP2 MSTORE PUSH1 0x4 DUP2 ADD DUP6 SWAP1 MSTORE PUSH1 0x19 PUSH1 0x24 DUP3 ADD MSTORE PUSH32 0x426F6F6B696E6720616C726561647920636F6D706C6574656400000000000000 PUSH1 0x44 DUP3 ADD MSTORE PUSH1 0x64 SWAP1 REVERT JUMPDEST PUSH1 0x40 MLOAD PUSH3 0x461BCD PUSH1 0xE5 SHL DUP2 MSTORE PUSH1 0x4 DUP2 ADD DUP6 SWAP1 MSTORE PUSH1 0x15 PUSH1 0x24 DUP3 ADD MSTORE PUSH21 0x109BDBDADA5B99C81B9BDD0818DBDB999A5C9B5959 PUSH1 0x5A SHL PUSH1 0x44 DUP3 ADD MSTORE PUSH1 0x64 SWAP1 REVERT JUMPDEST CALLVALUE PUSH2 0x16D JUMPI PUSH1 0x20 CALLDATASIZE PUSH1 0x3 NOT ADD SLT PUSH2 0x16D JUMPI PUSH1 0x20 SWAP1 PUSH1 0x1 PUSH1 0x1 PUSH1 0xA0 SHL SUB PUSH2 0x106A PUSH2 0x107E JUMP JUMPDEST AND PUSH1 0x0 MSTORE PUSH1 0x2 DUP3 MSTORE PUSH1 0x40 PUSH1 0x0 KECCAK256 SLOAD ISZERO ISZERO DUP2 MSTORE RETURN JUMPDEST PUSH1 0x4 CALLDATALOAD SWAP1 PUSH1 0x1 PUSH1 0x1 PUSH1 0xA0 SHL SUB DUP3 AND DUP3 SUB PUSH2 0x16D JUMPI JUMP JUMPDEST SWAP1 PUSH1 0x1 DUP3 DUP2 SHR SWAP3 AND DUP1 ISZERO PUSH2 0x10C4 JUMPI JUMPDEST PUSH1 0x20 DUP4 LT EQ PUSH2 0x10AE JUMPI JUMP JUMPDEST PUSH4 0x4E487B71 PUSH1 0xE0 SHL PUSH1 0x0 MSTORE PUSH1 0x22 PUSH1 0x4 MSTORE PUSH1 0x24 PUSH1 0x0 REVERT JUMPDEST SWAP2 PUSH1 0x7F AND SWAP2 PUSH2 0x10A3 JUMP JUMPDEST PUSH2 0x160 DUP2 ADD SWAP1 DUP2 LT PUSH8 0xFFFFFFFFFFFFFFFF DUP3 GT OR PUSH2 0x86D JUMPI PUSH1 0x40 MSTORE JUMP JUMPDEST SWAP1 PUSH1 0x1F DUP1 NOT SWAP2 ADD AND DUP2 ADD SWAP1 DUP2 LT PUSH8 0xFFFFFFFFFFFFFFFF DUP3 GT OR PUSH2 0x86D JUMPI PUSH1 0x40 MSTORE JUMP JUMPDEST SWAP1 PUSH1 0x40 MLOAD SWAP2 DUP3 PUSH1 0x0 DUP3 SLOAD SWAP3 PUSH2 0x1121 DUP5 PUSH2 0x1094 JUMP JUMPDEST SWAP1 DUP2 DUP5 MSTORE PUSH1 0x1 SWAP5 DUP6 DUP2 AND SWAP1 DUP2 PUSH1 0x0 EQ PUSH2 0x1190 JUMPI POP PUSH1 0x1 EQ PUSH2 0x114D JUMPI JUMPDEST POP POP PUSH2 0x114B SWAP3 POP SUB DUP4 PUSH2 0x10EB JUMP JUMPDEST JUMP JUMPDEST SWAP1 SWAP4 SWAP2 POP PUSH1 0x0 MSTORE PUSH1 0x20 SWAP1 DUP2 PUSH1 0x0 KECCAK256 SWAP4 PUSH1 0x0 SWAP2 JUMPDEST DUP2 DUP4 LT PUSH2 0x1178 JUMPI POP POP PUSH2 0x114B SWAP4 POP DUP3 ADD ADD CODESIZE DUP1 PUSH2 0x113D JUMP JUMPDEST DUP6 SLOAD DUP9 DUP5 ADD DUP6 ADD MSTORE SWAP5 DUP6 ADD SWAP5 DUP8 SWAP5 POP SWAP2 DUP4 ADD SWAP2 PUSH2 0x1160 JUMP JUMPDEST SWAP2 POP POP PUSH2 0x114B SWAP5 POP PUSH1 0x20 SWAP3 POP PUSH1 0xFF NOT AND DUP3 DUP5 ADD MSTORE ISZERO ISZERO PUSH1 0x5 SHL DUP3 ADD ADD CODESIZE DUP1 PUSH2 0x113D JUMP JUMPDEST PUSH1 0x0 JUMPDEST DUP4 DUP2 LT PUSH2 0x11C6 JUMPI POP POP PUSH1 0x0 SWAP2 ADD MSTORE JUMP JUMPDEST DUP2 DUP2 ADD MLOAD DUP4 DUP3 ADD MSTORE PUSH1 0x20 ADD PUSH2 0x11B6 JUMP JUMPDEST SWAP1 PUSH1 0x20 SWAP2 PUSH2 0x11EF DUP2 MLOAD DUP1 SWAP3 DUP2 DUP6 MSTORE DUP6 DUP1 DUP7 ADD SWAP2 ADD PUSH2 0x11B3 JUMP JUMPDEST PUSH1 0x1F ADD PUSH1 0x1F NOT AND ADD ADD SWAP1 JUMP JUMPDEST SWAP1 PUSH1 0x5 DUP3 LT ISZERO PUSH2 0x335 JUMPI MSTORE JUMP JUMPDEST PUSH8 0xFFFFFFFFFFFFFFFF DUP2 GT PUSH2 0x86D JUMPI PUSH1 0x1F ADD PUSH1 0x1F NOT AND PUSH1 0x20 ADD SWAP1 JUMP JUMPDEST DUP2 PUSH1 0x1F DUP3 ADD SLT ISZERO PUSH2 0x16D JUMPI DUP1 CALLDATALOAD SWAP1 PUSH2 0x123B DUP3 PUSH2 0x1208 JUMP JUMPDEST SWAP3 PUSH2 0x1249 PUSH1 0x40 MLOAD SWAP5 DUP6 PUSH2 0x10EB JUMP JUMPDEST DUP3 DUP5 MSTORE PUSH1 0x20 DUP4 DUP4 ADD ADD GT PUSH2 0x16D JUMPI DUP2 PUSH1 0x0 SWAP3 PUSH1 0x20 DUP1 SWAP4 ADD DUP4 DUP7 ADD CALLDATACOPY DUP4 ADD ADD MSTORE SWAP1 JUMP JUMPDEST DUP1 SLOAD DUP3 LT ISZERO PUSH2 0x1283 JUMPI PUSH1 0x0 MSTORE PUSH1 0x20 PUSH1 0x0 KECCAK256 ADD SWAP1 PUSH1 0x0 SWAP1 JUMP JUMPDEST PUSH4 0x4E487B71 PUSH1 0xE0 SHL PUSH1 0x0 MSTORE PUSH1 0x32 PUSH1 0x4 MSTORE PUSH1 0x24 PUSH1 0x0 REVERT JUMPDEST ISZERO PUSH2 0x12A0 JUMPI JUMP JUMPDEST PUSH1 0x40 MLOAD PUSH3 0x461BCD PUSH1 0xE5 SHL DUP2 MSTORE PUSH1 0x20 PUSH1 0x4 DUP3 ADD MSTORE PUSH1 0x11 PUSH1 0x24 DUP3 ADD MSTORE PUSH17 0x109BDBDADA5B99C81B9BDD08199BDD5B99 PUSH1 0x7A SHL PUSH1 0x44 DUP3 ADD MSTORE PUSH1 0x64 SWAP1 REVERT JUMPDEST ISZERO PUSH2 0x12E0 JUMPI JUMP JUMPDEST PUSH1 0x40 MLOAD PUSH3 0x461BCD PUSH1 0xE5 SHL DUP2 MSTORE PUSH1 0x20 PUSH1 0x4 DUP3 ADD MSTORE PUSH1 0xE PUSH1 0x24 DUP3 ADD MSTORE PUSH14 0x139BDD08185D5D1A1BDC9A5E9959 PUSH1 0x92 SHL PUSH1 0x44 DUP3 ADD MSTORE PUSH1 0x64 SWAP1 REVERT JUMPDEST RETURNDATASIZE ISZERO PUSH2 0x1341 JUMPI RETURNDATASIZE SWAP1 PUSH2 0x1327 DUP3 PUSH2 0x1208 JUMP JUMPDEST SWAP2 PUSH2 0x1335 PUSH1 0x40 MLOAD SWAP4 DUP5 PUSH2 0x10EB JUMP JUMPDEST DUP3 MSTORE RETURNDATASIZE PUSH1 0x0 PUSH1 0x20 DUP5 ADD RETURNDATACOPY JUMP JUMPDEST PUSH1 0x60 SWAP1 JUMP INVALID LOG2 PUSH5 0x6970667358 0x22 SLT KECCAK256 PUSH1 0xC2 CREATE2 0x4E DIV PUSH12 0x271C54DDBE7D6E2DA34FDF49 0xC7 PUSH17 0x64543AEBC26A2B981AF1407F64736F6C63 NUMBER STOP ADDMOD EQ STOP CALLER "},"methodIdentifiers":{"bookings(uint256)":"1dab301e","cancelBooking(uint256,string)":"d27d559f","completeBooking(uint256)":"1a2b3431","confirmBooking(uint256)":"54056b69","createBooking(string,uint256,uint256,uint256)":"7c31854c","depositCelo(uint256)":"e1e04458","escrowAdmin()":"8761fb7c","getBooking(uint256)":"6a5c841a","getBookingCount(address)":"3ca19952","getContractBalance()":"6f9fb98a","getUserBookings(address)":"ef3197c8","hasBookings(address)":"0dfb62b7","nextBookingId()":"26f20c79","userBookings(address,uint256)":"e3a4d3a2"}}}}}