{"src/contracts/Ubook.sol":{"Ubook":{"abi":[{"inputs":[],"stateMutability":"nonpayable","type":"constructor"},{"inputs":[{"internalType":"address","name":"owner","type":"address"}],"name":"OwnableInvalidOwner","type":"error"},{"inputs":[{"internalType":"address","name":"account","type":"address"}],"name":"OwnableUnauthorizedAccount","type":"error"},{"inputs":[],"name":"ReentrancyGuardReentrantCall","type":"error"},{"anonymous":false,"inputs":[{"indexed":true,"internalType":"uint256","name":"accId","type":"uint256"},{"indexed":true,"internalType":"address","name":"host","type":"address"}],"name":"AccommodationCreated","type":"event"},{"anonymous":false,"inputs":[{"indexed":true,"internalType":"uint256","name":"bookingId","type":"uint256"},{"indexed":false,"internalType":"uint256","name":"refundToGuest","type":"uint256"},{"indexed":false,"internalType":"uint256","name":"feeToAdmin","type":"uint256"}],"name":"BookingCancelled","type":"event"},{"anonymous":false,"inputs":[{"indexed":true,"internalType":"uint256","name":"bookingId","type":"uint256"},{"indexed":false,"internalType":"uint256","name":"releasedToAdmin","type":"uint256"}],"name":"BookingCompleted","type":"event"},{"anonymous":false,"inputs":[{"indexed":true,"internalType":"uint256","name":"bookingId","type":"uint256"}],"name":"BookingConfirmed","type":"event"},{"anonymous":false,"inputs":[{"indexed":true,"internalType":"uint256","name":"bookingId","type":"uint256"},{"indexed":true,"internalType":"uint256","name":"accId","type":"uint256"},{"indexed":true,"internalType":"address","name":"guest","type":"address"},{"indexed":false,"internalType":"uint256","name":"deposit","type":"uint256"}],"name":"BookingCreated","type":"event"},{"anonymous":false,"inputs":[{"indexed":true,"internalType":"address","name":"previousOwner","type":"address"},{"indexed":true,"internalType":"address","name":"newOwner","type":"address"}],"name":"OwnershipTransferred","type":"event"},{"stateMutability":"payable","type":"fallback"},{"inputs":[],"name":"accommodationCounter","outputs":[{"internalType":"uint256","name":"","type":"uint256"}],"stateMutability":"view","type":"function"},{"inputs":[{"internalType":"uint256","name":"","type":"uint256"}],"name":"accommodations","outputs":[{"internalType":"uint256","name":"id","type":"uint256"},{"internalType":"address","name":"host","type":"address"},{"internalType":"string","name":"name","type":"string"},{"internalType":"string","name":"location","type":"string"},{"internalType":"string","name":"accType","type":"string"},{"internalType":"uint256","name":"pricePerNight","type":"uint256"},{"internalType":"uint8","name":"rating","type":"uint8"},{"internalType":"bool","name":"available","type":"bool"}],"stateMutability":"view","type":"function"},{"inputs":[],"name":"admin","outputs":[{"internalType":"address","name":"","type":"address"}],"stateMutability":"view","type":"function"},{"inputs":[],"name":"bookingCounter","outputs":[{"internalType":"uint256","name":"","type":"uint256"}],"stateMutability":"view","type":"function"},{"inputs":[{"internalType":"uint256","name":"","type":"uint256"}],"name":"bookings","outputs":[{"internalType":"uint256","name":"id","type":"uint256"},{"internalType":"uint256","name":"accommodationId","type":"uint256"},{"internalType":"address","name":"guest","type":"address"},{"internalType":"uint256","name":"checkIn","type":"uint256"},{"internalType":"uint256","name":"checkOut","type":"uint256"},{"internalType":"uint8","name":"nights","type":"uint8"},{"internalType":"uint256","name":"pricePerNight","type":"uint256"},{"internalType":"uint256","name":"total","type":"uint256"},{"internalType":"uint256","name":"deposit","type":"uint256"},{"internalType":"enum Ubook.BookingStatus","name":"status","type":"uint8"},{"internalType":"uint256","name":"createdAt","type":"uint256"},{"internalType":"uint256","name":"completedAt","type":"uint256"}],"stateMutability":"view","type":"function"},{"inputs":[{"internalType":"uint256","name":"bookingId","type":"uint256"}],"name":"cancelBooking","outputs":[],"stateMutability":"nonpayable","type":"function"},{"inputs":[{"internalType":"uint256","name":"bookingId","type":"uint256"}],"name":"completeBooking","outputs":[],"stateMutability":"nonpayable","type":"function"},{"inputs":[{"internalType":"string","name":"name","type":"string"},{"internalType":"string","name":"location","type":"string"},{"internalType":"string","name":"accType","type":"string"},{"internalType":"uint256","name":"pricePerNight","type":"uint256"},{"internalType":"uint8","name":"rating","type":"uint8"},{"internalType":"bool","name":"available","type":"bool"},{"internalType":"string[]","name":"images","type":"string[]"},{"internalType":"string[]","name":"amenities","type":"string[]"}],"name":"createAccommodation","outputs":[],"stateMutability":"nonpayable","type":"function"},{"inputs":[{"internalType":"uint256","name":"accId","type":"uint256"},{"internalType":"uint256","name":"checkIn","type":"uint256"},{"internalType":"uint256","name":"checkOut","type":"uint256"}],"name":"createBooking","outputs":[],"stateMutability":"payable","type":"function"},{"inputs":[{"internalType":"uint256","name":"","type":"uint256"}],"name":"escrowBalances","outputs":[{"internalType":"uint256","name":"","type":"uint256"}],"stateMutability":"view","type":"function"},{"inputs":[{"internalType":"uint256","name":"accId","type":"uint256"}],"name":"getAccommodation","outputs":[{"components":[{"internalType":"uint256","name":"id","type":"uint256"},{"internalType":"address","name":"host","type":"address"},{"internalType":"string","name":"name","type":"string"},{"internalType":"string","name":"location","type":"string"},{"internalType":"string","name":"accType","type":"string"},{"internalType":"uint256","name":"pricePerNight","type":"uint256"},{"internalType":"uint8","name":"rating","type":"uint8"},{"internalType":"bool","name":"available","type":"bool"},{"internalType":"string[]","name":"images","type":"string[]"},{"internalType":"string[]","name":"amenities","type":"string[]"}],"internalType":"struct Ubook.Accommodation","name":"","type":"tuple"}],"stateMutability":"view","type":"function"},{"inputs":[{"internalType":"uint256","name":"bookingId","type":"uint256"}],"name":"getBooking","outputs":[{"components":[{"internalType":"uint256","name":"id","type":"uint256"},{"internalType":"uint256","name":"accommodationId","type":"uint256"},{"internalType":"address","name":"guest","type":"address"},{"internalType":"uint256","name":"checkIn","type":"uint256"},{"internalType":"uint256","name":"checkOut","type":"uint256"},{"internalType":"uint8","name":"nights","type":"uint8"},{"internalType":"uint256","name":"pricePerNight","type":"uint256"},{"internalType":"uint256","name":"total","type":"uint256"},{"internalType":"uint256","name":"deposit","type":"uint256"},{"internalType":"enum Ubook.BookingStatus","name":"status","type":"uint8"},{"internalType":"uint256","name":"createdAt","type":"uint256"},{"internalType":"uint256","name":"completedAt","type":"uint256"}],"internalType":"struct Ubook.Booking","name":"","type":"tuple"}],"stateMutability":"view","type":"function"},{"inputs":[{"internalType":"uint256","name":"bookingId","type":"uint256"}],"name":"getEscrowBalance","outputs":[{"internalType":"uint256","name":"","type":"uint256"}],"stateMutability":"view","type":"function"},{"inputs":[],"name":"owner","outputs":[{"internalType":"address","name":"","type":"address"}],"stateMutability":"view","type":"function"},{"inputs":[],"name":"platformFeeBps","outputs":[{"internalType":"uint16","name":"","type":"uint16"}],"stateMutability":"view","type":"function"},{"inputs":[],"name":"renounceOwnership","outputs":[],"stateMutability":"nonpayable","type":"function"},{"inputs":[{"internalType":"uint256","name":"accId","type":"uint256"},{"internalType":"bool","name":"available","type":"bool"}],"name":"setAvailability","outputs":[],"stateMutability":"nonpayable","type":"function"},{"inputs":[{"internalType":"uint16","name":"bps","type":"uint16"}],"name":"setPlatformFee","outputs":[],"stateMutability":"nonpayable","type":"function"},{"inputs":[{"internalType":"address","name":"newOwner","type":"address"}],"name":"transferOwnership","outputs":[],"stateMutability":"nonpayable","type":"function"},{"inputs":[{"internalType":"address","name":"host","type":"address"},{"internalType":"bool","name":"allowed","type":"bool"}],"name":"whitelistHost","outputs":[],"stateMutability":"nonpayable","type":"function"},{"inputs":[{"internalType":"address","name":"","type":"address"}],"name":"whitelistedHosts","outputs":[{"internalType":"bool","name":"","type":"bool"}],"stateMutability":"view","type":"function"},{"stateMutability":"payable","type":"receive"}],"evm":{"bytecode":{"linkReferences":{},"object":"608080604052346100965733156100805760008054336001600160a01b03198216811783556040519290916001600160a01b0316907f8be0079c531659141344cd1fd0a4f28419497f9722a3daafe3b4186f6b6457e09080a360018055600280546001600160b01b0319163317607d60a21b179055611e8e908161009c8239f35b631e4fbdf760e01b815260006004820152602490fd5b600080fdfe60806040526004361015610018575b361561001657005b005b60003560e01c80630dca825e146117715780630ddd9c85146114485780631a2b3431146113115780631dab301e1461125457806322dcd13e1461122f57806343ebf45a14610105578063580d22891461105c5780635cbc742c14610fca5780636a5c841a14610e0e578063715018a614610db5578063805a232f14610d765780638da5cb5b14610d4d5780639389e7aa14610d2f578063952f0f5814610cd1578063a865bf8014610c18578063d287ac4214610bfa578063d599db2914610b35578063e336686e146101e8578063f2fde38b1461015f578063f851a440146101365763fce609030361000e575b346101315760203660031901126101315760043560005260086020526020604060002054604051908152f35b600080fd5b34610131576000366003190112610131576002546040516001600160a01b039091168152602090f35b3461013157602036600319011261013157610178611a4c565b610180611c07565b6001600160a01b039081169081156101cf57600054826001600160601b0360a01b821617600055167f8be0079c531659141344cd1fd0a4f28419497f9722a3daafe3b4186f6b6457e0600080a3005b604051631e4fbdf760e01b815260006004820152602490fd5b3461013157610100366003190112610131576004356001600160401b03811161013157610219903690600401611baa565b6024356001600160401b03811161013157610238903690600401611baa565b906044356001600160401b03811161013157610258903690600401611baa565b9060843560ff811681036101315760a4359081151582036101315760c4356001600160401b03811161013157610292903690600401611bd7565b9390946001600160401b0360e43511610131576102b43660e435600401611bd7565b97909833600052600760205260ff604060002054168015610b21575b15610aea576003546102e190611c33565b9b8c6003556040519b6102f38d611aab565b8d8d528c339060200152369061030892611c73565b60408c0152369061031892611c73565b60608a0152369061032892611c73565b608088015260643560a088015260ff1660c0870152151560e0860152369061034f92611cc1565b610100840152369061036092611cc1565b61012082015281600052600560205260406000208151815560018101600160a01b600190036020840151166001600160601b0360a01b82541617905560408201519283516001600160401b0381116106c6576103bf6002840154611a71565b601f8111610ab5575b506020601f8211600114610a46578192939495600092610a3b575b50508160011b916000199060031b1c19161760028301555b60608301519283516001600160401b0381116106c65761041e6003850154611a71565b601f8111610a06575b506020601f821160011461099757819293949560009261098c575b50508160011b916000199060031b1c19161760038401555b60808101519283516001600160401b0381116106c65761047d6004830154611a71565b601f8111610957575b506020601f82116001146108e85781929394956000926108dd575b50508160011b916000199060031b1c19161760048201555b60a082015160058201556104f96006820160ff60c08501511660ff1982541617815560e0840151151561ff00825491151560081b169061ff001916179055565b610100820151805190600160401b82116106c6576007830154826007850155808310610865575b5060200190600783016000526020600020916000905b82821061075057868661012060088801910151805190600160401b82116106c65782548284558083106106dc575b50602001916000526020600020916000905b8282106105a65733857f4db6367e444ab056a2ed40aaf1c43cf3beb26bfabc6d86081de922486b108f10600080a3005b80518051906001600160401b0382116106c6576105c38654611a71565b601f8111610689575b50602090601f831160011461061957928260019493602093869560009261060e575b5050600019600383901b1c191690841b1787555b01940191019092610576565b015190508a806105ee565b908660005260206000209160005b601f1985168110610671575083602093600196938796938794601f19811610610658575b505050811b018755610602565b015160001960f88460031b161c191690558a808061064b565b91926020600181928685015181550194019201610627565b6106b690876000526020600020601f850160051c810191602086106106bc575b601f0160051c0190611d40565b876105cc565b90915081906106a9565b634e487b7160e01b600052604160045260246000fd5b8360005282602060002091820191015b8181106106f95750610564565b8061070660019254611a71565b80610713575b50016106ec565b601f811183146107295750600081555b8761070c565b600090828252610747601f60208420920160051c8201858301611d40565b81835555610723565b80518051906001600160401b0382116106c65761076d8654611a71565b601f8111610833575b50602090601f83116001146107c35792826001949360209386956000926107b8575b5050600019600383901b1c191690841b1787555b01940191019092610536565b015190508c80610798565b908660005260206000209160005b601f198516811061081b575083602093600196938796938794601f19811610610802575b505050811b0187556107ac565b015160001960f88460031b161c191690558c80806107f5565b919260206001819286850151815501940192016107d1565b61085f90876000526020600020601f850160051c810191602086106106bc57601f0160051c0190611d40565b89610776565b600784016000526020600020908382015b8183018110610886575050610520565b8061089360019254611a71565b806108a0575b5001610876565b601f811183146108b65750600081555b89610899565b6000908282526108d4601f60208420920160051c8201858301611d40565b818355556108b0565b0151905085806104a1565b6004830160005260206000209060005b601f198416811061093f575060019394959683601f19811610610926575b505050811b0160048201556104b9565b015160001960f88460031b161c19169055858080610916565b9091602060018192858b0151815501930191016108f8565b61098690600484016000526020600020601f840160051c810191602085106106bc57601f0160051c0190611d40565b85610486565b015190508580610442565b6003850160005260206000209060005b601f19841681106109ee575060019394959683601f198116106109d5575b505050811b01600384015561045a565b015160001960f88460031b161c191690558580806109c5565b9091602060018192858b0151815501930191016109a7565b610a3590600386016000526020600020601f840160051c810191602085106106bc57601f0160051c0190611d40565b85610427565b0151905085806103e3565b6002840160005260206000209060005b601f1984168110610a9d575060019394959683601f19811610610a84575b505050811b0160028301556103fb565b015160001960f88460031b161c19169055858080610a74565b9091602060018192858b015181550193019101610a56565b610ae490600285016000526020600020601f840160051c810191602085106106bc57601f0160051c0190611d40565b856103c8565b60405162461bcd60e51b815260206004820152600f60248201526e139bdd081dda1a5d195b1a5cdd1959608a1b6044820152606490fd5b506002546001600160a01b031633146102d0565b34610131576020366003190112610131576004356000908152600560205260409020805460018201546001600160a01b03169160ff610b7660028301611b04565b610bdd610b8560038501611b04565b610bcf610b9460048701611b04565b91610bc160066005890154980154956040519a8b9a8b5260208b01526101008060408c01528a01906119b0565b9088820360608a01526119b0565b9086820360808801526119b0565b9260a085015281811660c085015260081c16151560e08301520390f35b34610131576000366003190112610131576020600454604051908152f35b3461013157604036600319011261013157600435610c34611a62565b600082815260056020526040902060010154336001600160a01b0391821614908115610cc3575b5015610c8d5761001691600052600560205260066040600020019061ff00825491151560081b169061ff001916179055565b60405162461bcd60e51b815260206004820152600e60248201526d139bdd08185d5d1a1bdc9a5e995960921b6044820152606490fd5b905060025416331483610c5b565b3461013157604036600319011261013157610cea611a4c565b610cf2611a62565b60025490916001600160a01b0391610d0d9083163314611e1f565b16600052600760205260406000209060ff801983541691151516179055600080f35b34610131576000366003190112610131576020600354604051908152f35b34610131576000366003190112610131576000546040516001600160a01b039091168152602090f35b34610131576020366003190112610131576001600160a01b03610d97611a4c565b166000526007602052602060ff604060002054166040519015158152f35b3461013157600036600319011261013157610dce611c07565b600080546001600160a01b0319811682556001600160a01b03167f8be0079c531659141344cd1fd0a4f28419497f9722a3daafe3b4186f6b6457e08280a3005b34610131576020366003190112610131576000610160604051610e3081611ac7565b8281528260208201528260408201528260608201528260808201528260a08201528260c08201528260e0820152826101008201528261012082015282610140820152015260043560005260066020526040600020604051610e9081611ac7565b815481526001820154602082015260028201546001600160a01b03166040820152600382015460608201526004820154608082015260058083015460ff90811660a0840152600684015460c0840152600784015460e0840152600884015461010084015260098401541690811015610fb45761018092600b91610120840152600a810154610140840152015461016082015261016060405191805183526020810151602084015260018060a01b036040820151166040840152606081015160608401526080810151608084015260ff60a08201511660a084015260c081015160c084015260e081015160e0840152610100810151610100840152610f9e6101208201516101208501906119a3565b6101408101516101408401520151610160820152f35b634e487b7160e01b600052602160045260246000fd5b346101315760203660031901126101315760043561ffff811690818103610131576002549161271090611007336001600160a01b03861614611e1f565b116110295761ffff60a01b1990911660a09190911b61ffff60a01b1617600255005b60405162461bcd60e51b815260206004820152600b60248201526a496e76616c69642066656560a81b6044820152606490fd5b3461013157602036600319011261013157606061012060405161107e81611aab565b60008152600060208201528260408201528280820152826080820152600060a0820152600060c0820152600060e0820152826101008201520152600435600052600560205261122b60406000206111626008604051926110dd84611aab565b8054845260018101546001600160a01b0316602085015261110060028201611b04565b604085015261111160038201611b04565b606085015261112260048201611b04565b6080850152600581015460a085015260ff600682015481811660c0870152831c16151560e085015261115660078201611d6a565b61010085015201611d6a565b610120820152604051918291602083528051602084015260018060a01b03602082015116604084015260408101516111a8610140918260608701526101608601906119b0565b9061012061121a6111e26111ce606087015195601f1996878b83030160808c01526119b0565b6080870151868a83030160a08b01526119b0565b60a086015160c089015260ff60c08701511660e089015260e086015115156101008901526101008601518589830301848a01526119f0565b9301519185840301908501526119f0565b0390f35b3461013157600036600319011261013157602061ffff60025460a01c16604051908152f35b34610131576020366003190112610131576004356000526006602052610180604060002080549060018101549061130360018060a01b036002830154166003830154600484015460ff60058601541660068601549060078701549260088801549460ff60098a01541696600b600a8b01549a01549a6040519c8d5260208d015260408c015260608b015260808a015260a089015260c088015260e08701526101008601526101208501906119a3565b610140830152610160820152f35b3461013157602080600319360112610131576004359060018060a01b0361133d81600254163314611e1f565b611345611dcc565b8260005260068252604060002060098101805460ff81166005811015610fb4576001036114125760008094819482946003849560ff1916179055600b42910155878252600887526040822090815496879255600254165af16113a5611def565b50156113db57907f7c216d827663830a8eaf435519e88ebb0b1c00dccaf021972073a54c9535c3da91604051908152a260018055005b60405162461bcd60e51b815260048101839052600f60248201526e151c985b9cd9995c8819985a5b1959608a1b6044820152606490fd5b60405162461bcd60e51b815260048101869052600e60248201526d496e76616c69642073746174757360901b6044820152606490fd5b60603660031901126101315761145c611dcc565b600435600052600560205260406000206040519061147982611aab565b8054825260018101546001600160a01b0316602083015261149c60028201611b04565b60408301526114ad60038201611b04565b60608301526114be60048201611b04565b6080830152600581015460a0830152611507600860068301549260ff841660c086015260ff60e0860194831c16151584526114fb60078201611d6a565b61010086015201611d6a565b610120830152511561173c5760243560443511156117075760ff62015180611533602435604435611dbf565b04166115438160a0840151611d57565b341515806116fd575b156116c65760a061155e600454611c33565b938460045501516040519261157284611ac7565b84845260043560208501523360408501526024356060850152604435608085015260a084015260c083015260e082015234610100820152600161012082015242610140820152600061016082015281600052600660205260406000209080518255602081015160018301556002820160018060a01b036040830151166001600160601b0360a01b82541617905560608101516003830155608081015160048301556005820160ff60a0830151169060ff19918282541617905560c0820151600684015560e0820151600784015561010082015160088401556009830191610120810151926005841015610fb457600b9360ff610160948354169116179055610140810151600a85015501519101558060005260086020523460406000205560405134815233917fee9369022ec7e3819f7112ccf704bf01ea7e76226acf7cd06ca5e6dacc71da2f602060043593a460018055005b60405162461bcd60e51b815260206004820152600f60248201526e125b9d985b1a590819195c1bdcda5d608a1b6044820152606490fd5b508034111561154c565b60405162461bcd60e51b815260206004820152600d60248201526c496e76616c696420646174657360981b6044820152606490fd5b60405162461bcd60e51b815260206004820152600d60248201526c4e6f7420617661696c61626c6560981b6044820152606490fd5b3461013157602080600319360112610131576004359061178f611dcc565b60008281526006825260409020600281015490916001600160a01b03918216330361196c57600383015442101561193357600983019182549360ff85166005811015610fb4576001036118fe57600801549260046118046127106117fc61ffff60025460a01c1688611d57565b048096611dbf565b9560ff1916179055846000526008825260006040812055600080808087335af161182c611def565b50156118c9578261186e575b50916040917fb4b18587035f30513b67e5ddffc4e2abcfdd461d49757f346ed33a5cf0fba390938351928352820152a260018055005b60008080858194600254165af1611883611def565b501561188f5784611838565b6064906040519062461bcd60e51b825260048201526013602482015272119959481d1c985b9cd9995c8819985a5b1959606a1b6044820152fd5b60405162461bcd60e51b815260048101839052600d60248201526c1499599d5b990819985a5b1959609a1b6044820152606490fd5b60405162461bcd60e51b815260048101849052600d60248201526c10d85b9b9bdd0818d85b98d95b609a1b6044820152606490fd5b6064906040519062461bcd60e51b825260048201526012602482015271151bdbc81b185d19481d1bc818d85b98d95b60721b6044820152fd5b6064906040519062461bcd60e51b82526004820152601060248201526f4e6f7420796f757220626f6f6b696e6760801b6044820152fd5b906005821015610fb45752565b919082519283825260005b8481106119dc575050826000602080949584010152601f8019910116010190565b6020818301810151848301820152016119bb565b908082519081815260208091019281808460051b8301019501936000915b848310611a1e5750505050505090565b9091929394958480611a3c600193601f198682030187528a516119b0565b9801930193019194939290611a0e565b600435906001600160a01b038216820361013157565b60243590811515820361013157565b90600182811c92168015611aa1575b6020831014611a8b57565b634e487b7160e01b600052602260045260246000fd5b91607f1691611a80565b61014081019081106001600160401b038211176106c657604052565b61018081019081106001600160401b038211176106c657604052565b90601f801991011681019081106001600160401b038211176106c657604052565b9060405191826000825492611b1884611a71565b908184526001948581169081600014611b875750600114611b44575b5050611b4292500383611ae3565b565b9093915060005260209081600020936000915b818310611b6f575050611b4293508201013880611b34565b85548884018501529485019487945091830191611b57565b915050611b4294506020925060ff191682840152151560051b8201013880611b34565b9181601f84011215610131578235916001600160401b038311610131576020838186019501011161013157565b9181601f84011215610131578235916001600160401b038311610131576020808501948460051b01011161013157565b6000546001600160a01b03163303611c1b57565b60405163118cdaa760e01b8152336004820152602490fd5b6000198114611c425760010190565b634e487b7160e01b600052601160045260246000fd5b6001600160401b0381116106c657601f01601f191660200190565b929192611c7f82611c58565b91611c8d6040519384611ae3565b829481845281830111610131578281602093846000960137010152565b6001600160401b0381116106c65760051b60200190565b92919092611cce84611caa565b91611cdc6040519384611ae3565b829480845260208094019060051b8301928284116101315780915b848310611d0657505050505050565b82356001600160401b03811161013157820184601f82011215610131578691611d358683858095359101611c73565b815201920191611cf7565b818110611d4b575050565b60008155600101611d40565b81810292918115918404141715611c4257565b908154611d7681611caa565b92611d846040519485611ae3565b818452600090815260208082208186015b848410611da3575050505050565b6001838192611db185611b04565b815201920193019290611d95565b91908203918211611c4257565b600260015414611ddd576002600155565b604051633ee5aeb560e01b8152600490fd5b3d15611e1a573d90611e0082611c58565b91611e0e6040519384611ae3565b82523d6000602084013e565b606090565b15611e2657565b60405162461bcd60e51b815260206004820152600a60248201526927b7363c9030b236b4b760b11b6044820152606490fdfea2646970667358221220bb4bc4b5b47ec598ebfa71d255f2b798f673df36abd78af96feaee9ddad396bf64736f6c63430008140033","opcodes":"PUSH1 0x80 DUP1 PUSH1 0x40 MSTORE CALLVALUE PUSH2 0x96 JUMPI CALLER ISZERO PUSH2 0x80 JUMPI PUSH1 0x0 DUP1 SLOAD CALLER PUSH1 0x1 PUSH1 0x1 PUSH1 0xA0 SHL SUB NOT DUP3 AND DUP2 OR DUP4 SSTORE PUSH1 0x40 MLOAD SWAP3 SWAP1 SWAP2 PUSH1 0x1 PUSH1 0x1 PUSH1 0xA0 SHL SUB AND SWAP1 PUSH32 0x8BE0079C531659141344CD1FD0A4F28419497F9722A3DAAFE3B4186F6B6457E0 SWAP1 DUP1 LOG3 PUSH1 0x1 DUP1 SSTORE PUSH1 0x2 DUP1 SLOAD PUSH1 0x1 PUSH1 0x1 PUSH1 0xB0 SHL SUB NOT AND CALLER OR PUSH1 0x7D PUSH1 0xA2 SHL OR SWAP1 SSTORE PUSH2 0x1E8E SWAP1 DUP2 PUSH2 0x9C DUP3 CODECOPY RETURN JUMPDEST PUSH4 0x1E4FBDF7 PUSH1 0xE0 SHL DUP2 MSTORE PUSH1 0x0 PUSH1 0x4 DUP3 ADD MSTORE PUSH1 0x24 SWAP1 REVERT JUMPDEST PUSH1 0x0 DUP1 REVERT INVALID PUSH1 0x80 PUSH1 0x40 MSTORE PUSH1 0x4 CALLDATASIZE LT ISZERO PUSH2 0x18 JUMPI JUMPDEST CALLDATASIZE ISZERO PUSH2 0x16 JUMPI STOP JUMPDEST STOP JUMPDEST PUSH1 0x0 CALLDATALOAD PUSH1 0xE0 SHR DUP1 PUSH4 0xDCA825E EQ PUSH2 0x1771 JUMPI DUP1 PUSH4 0xDDD9C85 EQ PUSH2 0x1448 JUMPI DUP1 PUSH4 0x1A2B3431 EQ PUSH2 0x1311 JUMPI DUP1 PUSH4 0x1DAB301E EQ PUSH2 0x1254 JUMPI DUP1 PUSH4 0x22DCD13E EQ PUSH2 0x122F JUMPI DUP1 PUSH4 0x43EBF45A EQ PUSH2 0x105 JUMPI DUP1 PUSH4 0x580D2289 EQ PUSH2 0x105C JUMPI DUP1 PUSH4 0x5CBC742C EQ PUSH2 0xFCA JUMPI DUP1 PUSH4 0x6A5C841A EQ PUSH2 0xE0E JUMPI DUP1 PUSH4 0x715018A6 EQ PUSH2 0xDB5 JUMPI DUP1 PUSH4 0x805A232F EQ PUSH2 0xD76 JUMPI DUP1 PUSH4 0x8DA5CB5B EQ PUSH2 0xD4D JUMPI DUP1 PUSH4 0x9389E7AA EQ PUSH2 0xD2F JUMPI DUP1 PUSH4 0x952F0F58 EQ PUSH2 0xCD1 JUMPI DUP1 PUSH4 0xA865BF80 EQ PUSH2 0xC18 JUMPI DUP1 PUSH4 0xD287AC42 EQ PUSH2 0xBFA JUMPI DUP1 PUSH4 0xD599DB29 EQ PUSH2 0xB35 JUMPI DUP1 PUSH4 0xE336686E EQ PUSH2 0x1E8 JUMPI DUP1 PUSH4 0xF2FDE38B EQ PUSH2 0x15F JUMPI DUP1 PUSH4 0xF851A440 EQ PUSH2 0x136 JUMPI PUSH4 0xFCE60903 SUB PUSH2 0xE JUMPI JUMPDEST CALLVALUE PUSH2 0x131 JUMPI PUSH1 0x20 CALLDATASIZE PUSH1 0x3 NOT ADD SLT PUSH2 0x131 JUMPI PUSH1 0x4 CALLDATALOAD PUSH1 0x0 MSTORE PUSH1 0x8 PUSH1 0x20 MSTORE PUSH1 0x20 PUSH1 0x40 PUSH1 0x0 KECCAK256 SLOAD PUSH1 0x40 MLOAD SWAP1 DUP2 MSTORE RETURN JUMPDEST PUSH1 0x0 DUP1 REVERT JUMPDEST CALLVALUE PUSH2 0x131 JUMPI PUSH1 0x0 CALLDATASIZE PUSH1 0x3 NOT ADD SLT PUSH2 0x131 JUMPI PUSH1 0x2 SLOAD PUSH1 0x40 MLOAD PUSH1 0x1 PUSH1 0x1 PUSH1 0xA0 SHL SUB SWAP1 SWAP2 AND DUP2 MSTORE PUSH1 0x20 SWAP1 RETURN JUMPDEST CALLVALUE PUSH2 0x131 JUMPI PUSH1 0x20 CALLDATASIZE PUSH1 0x3 NOT ADD SLT PUSH2 0x131 JUMPI PUSH2 0x178 PUSH2 0x1A4C JUMP JUMPDEST PUSH2 0x180 PUSH2 0x1C07 JUMP JUMPDEST PUSH1 0x1 PUSH1 0x1 PUSH1 0xA0 SHL SUB SWAP1 DUP2 AND SWAP1 DUP2 ISZERO PUSH2 0x1CF JUMPI PUSH1 0x0 SLOAD DUP3 PUSH1 0x1 PUSH1 0x1 PUSH1 0x60 SHL SUB PUSH1 0xA0 SHL DUP3 AND OR PUSH1 0x0 SSTORE AND PUSH32 0x8BE0079C531659141344CD1FD0A4F28419497F9722A3DAAFE3B4186F6B6457E0 PUSH1 0x0 DUP1 LOG3 STOP JUMPDEST PUSH1 0x40 MLOAD PUSH4 0x1E4FBDF7 PUSH1 0xE0 SHL DUP2 MSTORE PUSH1 0x0 PUSH1 0x4 DUP3 ADD MSTORE PUSH1 0x24 SWAP1 REVERT JUMPDEST CALLVALUE PUSH2 0x131 JUMPI PUSH2 0x100 CALLDATASIZE PUSH1 0x3 NOT ADD SLT PUSH2 0x131 JUMPI PUSH1 0x4 CALLDATALOAD PUSH1 0x1 PUSH1 0x1 PUSH1 0x40 SHL SUB DUP2 GT PUSH2 0x131 JUMPI PUSH2 0x219 SWAP1 CALLDATASIZE SWAP1 PUSH1 0x4 ADD PUSH2 0x1BAA JUMP JUMPDEST PUSH1 0x24 CALLDATALOAD PUSH1 0x1 PUSH1 0x1 PUSH1 0x40 SHL SUB DUP2 GT PUSH2 0x131 JUMPI PUSH2 0x238 SWAP1 CALLDATASIZE SWAP1 PUSH1 0x4 ADD PUSH2 0x1BAA JUMP JUMPDEST SWAP1 PUSH1 0x44 CALLDATALOAD PUSH1 0x1 PUSH1 0x1 PUSH1 0x40 SHL SUB DUP2 GT PUSH2 0x131 JUMPI PUSH2 0x258 SWAP1 CALLDATASIZE SWAP1 PUSH1 0x4 ADD PUSH2 0x1BAA JUMP JUMPDEST SWAP1 PUSH1 0x84 CALLDATALOAD PUSH1 0xFF DUP2 AND DUP2 SUB PUSH2 0x131 JUMPI PUSH1 0xA4 CALLDATALOAD SWAP1 DUP2 ISZERO ISZERO DUP3 SUB PUSH2 0x131 JUMPI PUSH1 0xC4 CALLDATALOAD PUSH1 0x1 PUSH1 0x1 PUSH1 0x40 SHL SUB DUP2 GT PUSH2 0x131 JUMPI PUSH2 0x292 SWAP1 CALLDATASIZE SWAP1 PUSH1 0x4 ADD PUSH2 0x1BD7 JUMP JUMPDEST SWAP4 SWAP1 SWAP5 PUSH1 0x1 PUSH1 0x1 PUSH1 0x40 SHL SUB PUSH1 0xE4 CALLDATALOAD GT PUSH2 0x131 JUMPI PUSH2 0x2B4 CALLDATASIZE PUSH1 0xE4 CALLDATALOAD PUSH1 0x4 ADD PUSH2 0x1BD7 JUMP JUMPDEST SWAP8 SWAP1 SWAP9 CALLER PUSH1 0x0 MSTORE PUSH1 0x7 PUSH1 0x20 MSTORE PUSH1 0xFF PUSH1 0x40 PUSH1 0x0 KECCAK256 SLOAD AND DUP1 ISZERO PUSH2 0xB21 JUMPI JUMPDEST ISZERO PUSH2 0xAEA JUMPI PUSH1 0x3 SLOAD PUSH2 0x2E1 SWAP1 PUSH2 0x1C33 JUMP JUMPDEST SWAP12 DUP13 PUSH1 0x3 SSTORE PUSH1 0x40 MLOAD SWAP12 PUSH2 0x2F3 DUP14 PUSH2 0x1AAB JUMP JUMPDEST DUP14 DUP14 MSTORE DUP13 CALLER SWAP1 PUSH1 0x20 ADD MSTORE CALLDATASIZE SWAP1 PUSH2 0x308 SWAP3 PUSH2 0x1C73 JUMP JUMPDEST PUSH1 0x40 DUP13 ADD MSTORE CALLDATASIZE SWAP1 PUSH2 0x318 SWAP3 PUSH2 0x1C73 JUMP JUMPDEST PUSH1 0x60 DUP11 ADD MSTORE CALLDATASIZE SWAP1 PUSH2 0x328 SWAP3 PUSH2 0x1C73 JUMP JUMPDEST PUSH1 0x80 DUP9 ADD MSTORE PUSH1 0x64 CALLDATALOAD PUSH1 0xA0 DUP9 ADD MSTORE PUSH1 0xFF AND PUSH1 0xC0 DUP8 ADD MSTORE ISZERO ISZERO PUSH1 0xE0 DUP7 ADD MSTORE CALLDATASIZE SWAP1 PUSH2 0x34F SWAP3 PUSH2 0x1CC1 JUMP JUMPDEST PUSH2 0x100 DUP5 ADD MSTORE CALLDATASIZE SWAP1 PUSH2 0x360 SWAP3 PUSH2 0x1CC1 JUMP JUMPDEST PUSH2 0x120 DUP3 ADD MSTORE DUP2 PUSH1 0x0 MSTORE PUSH1 0x5 PUSH1 0x20 MSTORE PUSH1 0x40 PUSH1 0x0 KECCAK256 DUP2 MLOAD DUP2 SSTORE PUSH1 0x1 DUP2 ADD PUSH1 0x1 PUSH1 0xA0 SHL PUSH1 0x1 SWAP1 SUB PUSH1 0x20 DUP5 ADD MLOAD AND PUSH1 0x1 PUSH1 0x1 PUSH1 0x60 SHL SUB PUSH1 0xA0 SHL DUP3 SLOAD AND OR SWAP1 SSTORE PUSH1 0x40 DUP3 ADD MLOAD SWAP3 DUP4 MLOAD PUSH1 0x1 PUSH1 0x1 PUSH1 0x40 SHL SUB DUP2 GT PUSH2 0x6C6 JUMPI PUSH2 0x3BF PUSH1 0x2 DUP5 ADD SLOAD PUSH2 0x1A71 JUMP JUMPDEST PUSH1 0x1F DUP2 GT PUSH2 0xAB5 JUMPI JUMPDEST POP PUSH1 0x20 PUSH1 0x1F DUP3 GT PUSH1 0x1 EQ PUSH2 0xA46 JUMPI DUP2 SWAP3 SWAP4 SWAP5 SWAP6 PUSH1 0x0 SWAP3 PUSH2 0xA3B JUMPI JUMPDEST POP POP DUP2 PUSH1 0x1 SHL SWAP2 PUSH1 0x0 NOT SWAP1 PUSH1 0x3 SHL SHR NOT AND OR PUSH1 0x2 DUP4 ADD SSTORE JUMPDEST PUSH1 0x60 DUP4 ADD MLOAD SWAP3 DUP4 MLOAD PUSH1 0x1 PUSH1 0x1 PUSH1 0x40 SHL SUB DUP2 GT PUSH2 0x6C6 JUMPI PUSH2 0x41E PUSH1 0x3 DUP6 ADD SLOAD PUSH2 0x1A71 JUMP JUMPDEST PUSH1 0x1F DUP2 GT PUSH2 0xA06 JUMPI JUMPDEST POP PUSH1 0x20 PUSH1 0x1F DUP3 GT PUSH1 0x1 EQ PUSH2 0x997 JUMPI DUP2 SWAP3 SWAP4 SWAP5 SWAP6 PUSH1 0x0 SWAP3 PUSH2 0x98C JUMPI JUMPDEST POP POP DUP2 PUSH1 0x1 SHL SWAP2 PUSH1 0x0 NOT SWAP1 PUSH1 0x3 SHL SHR NOT AND OR PUSH1 0x3 DUP5 ADD SSTORE JUMPDEST PUSH1 0x80 DUP2 ADD MLOAD SWAP3 DUP4 MLOAD PUSH1 0x1 PUSH1 0x1 PUSH1 0x40 SHL SUB DUP2 GT PUSH2 0x6C6 JUMPI PUSH2 0x47D PUSH1 0x4 DUP4 ADD SLOAD PUSH2 0x1A71 JUMP JUMPDEST PUSH1 0x1F DUP2 GT PUSH2 0x957 JUMPI JUMPDEST POP PUSH1 0x20 PUSH1 0x1F DUP3 GT PUSH1 0x1 EQ PUSH2 0x8E8 JUMPI DUP2 SWAP3 SWAP4 SWAP5 SWAP6 PUSH1 0x0 SWAP3 PUSH2 0x8DD JUMPI JUMPDEST POP POP DUP2 PUSH1 0x1 SHL SWAP2 PUSH1 0x0 NOT SWAP1 PUSH1 0x3 SHL SHR NOT AND OR PUSH1 0x4 DUP3 ADD SSTORE JUMPDEST PUSH1 0xA0 DUP3 ADD MLOAD PUSH1 0x5 DUP3 ADD SSTORE PUSH2 0x4F9 PUSH1 0x6 DUP3 ADD PUSH1 0xFF PUSH1 0xC0 DUP6 ADD MLOAD AND PUSH1 0xFF NOT DUP3 SLOAD AND OR DUP2 SSTORE PUSH1 0xE0 DUP5 ADD MLOAD ISZERO ISZERO PUSH2 0xFF00 DUP3 SLOAD SWAP2 ISZERO ISZERO PUSH1 0x8 SHL AND SWAP1 PUSH2 0xFF00 NOT AND OR SWAP1 SSTORE JUMP JUMPDEST PUSH2 0x100 DUP3 ADD MLOAD DUP1 MLOAD SWAP1 PUSH1 0x1 PUSH1 0x40 SHL DUP3 GT PUSH2 0x6C6 JUMPI PUSH1 0x7 DUP4 ADD SLOAD DUP3 PUSH1 0x7 DUP6 ADD SSTORE DUP1 DUP4 LT PUSH2 0x865 JUMPI JUMPDEST POP PUSH1 0x20 ADD SWAP1 PUSH1 0x7 DUP4 ADD PUSH1 0x0 MSTORE PUSH1 0x20 PUSH1 0x0 KECCAK256 SWAP2 PUSH1 0x0 SWAP1 JUMPDEST DUP3 DUP3 LT PUSH2 0x750 JUMPI DUP7 DUP7 PUSH2 0x120 PUSH1 0x8 DUP9 ADD SWAP2 ADD MLOAD DUP1 MLOAD SWAP1 PUSH1 0x1 PUSH1 0x40 SHL DUP3 GT PUSH2 0x6C6 JUMPI DUP3 SLOAD DUP3 DUP5 SSTORE DUP1 DUP4 LT PUSH2 0x6DC JUMPI JUMPDEST POP PUSH1 0x20 ADD SWAP2 PUSH1 0x0 MSTORE PUSH1 0x20 PUSH1 0x0 KECCAK256 SWAP2 PUSH1 0x0 SWAP1 JUMPDEST DUP3 DUP3 LT PUSH2 0x5A6 JUMPI CALLER DUP6 PUSH32 0x4DB6367E444AB056A2ED40AAF1C43CF3BEB26BFABC6D86081DE922486B108F10 PUSH1 0x0 DUP1 LOG3 STOP JUMPDEST DUP1 MLOAD DUP1 MLOAD SWAP1 PUSH1 0x1 PUSH1 0x1 PUSH1 0x40 SHL SUB DUP3 GT PUSH2 0x6C6 JUMPI PUSH2 0x5C3 DUP7 SLOAD PUSH2 0x1A71 JUMP JUMPDEST PUSH1 0x1F DUP2 GT PUSH2 0x689 JUMPI JUMPDEST POP PUSH1 0x20 SWAP1 PUSH1 0x1F DUP4 GT PUSH1 0x1 EQ PUSH2 0x619 JUMPI SWAP3 DUP3 PUSH1 0x1 SWAP5 SWAP4 PUSH1 0x20 SWAP4 DUP7 SWAP6 PUSH1 0x0 SWAP3 PUSH2 0x60E JUMPI JUMPDEST POP POP PUSH1 0x0 NOT PUSH1 0x3 DUP4 SWAP1 SHL SHR NOT AND SWAP1 DUP5 SHL OR DUP8 SSTORE JUMPDEST ADD SWAP5 ADD SWAP2 ADD SWAP1 SWAP3 PUSH2 0x576 JUMP JUMPDEST ADD MLOAD SWAP1 POP DUP11 DUP1 PUSH2 0x5EE JUMP JUMPDEST SWAP1 DUP7 PUSH1 0x0 MSTORE PUSH1 0x20 PUSH1 0x0 KECCAK256 SWAP2 PUSH1 0x0 JUMPDEST PUSH1 0x1F NOT DUP6 AND DUP2 LT PUSH2 0x671 JUMPI POP DUP4 PUSH1 0x20 SWAP4 PUSH1 0x1 SWAP7 SWAP4 DUP8 SWAP7 SWAP4 DUP8 SWAP5 PUSH1 0x1F NOT DUP2 AND LT PUSH2 0x658 JUMPI JUMPDEST POP POP POP DUP2 SHL ADD DUP8 SSTORE PUSH2 0x602 JUMP JUMPDEST ADD MLOAD PUSH1 0x0 NOT PUSH1 0xF8 DUP5 PUSH1 0x3 SHL AND SHR NOT AND SWAP1 SSTORE DUP11 DUP1 DUP1 PUSH2 0x64B JUMP JUMPDEST SWAP2 SWAP3 PUSH1 0x20 PUSH1 0x1 DUP2 SWAP3 DUP7 DUP6 ADD MLOAD DUP2 SSTORE ADD SWAP5 ADD SWAP3 ADD PUSH2 0x627 JUMP JUMPDEST PUSH2 0x6B6 SWAP1 DUP8 PUSH1 0x0 MSTORE PUSH1 0x20 PUSH1 0x0 KECCAK256 PUSH1 0x1F DUP6 ADD PUSH1 0x5 SHR DUP2 ADD SWAP2 PUSH1 0x20 DUP7 LT PUSH2 0x6BC JUMPI JUMPDEST PUSH1 0x1F ADD PUSH1 0x5 SHR ADD SWAP1 PUSH2 0x1D40 JUMP JUMPDEST DUP8 PUSH2 0x5CC JUMP JUMPDEST SWAP1 SWAP2 POP DUP2 SWAP1 PUSH2 0x6A9 JUMP JUMPDEST PUSH4 0x4E487B71 PUSH1 0xE0 SHL PUSH1 0x0 MSTORE PUSH1 0x41 PUSH1 0x4 MSTORE PUSH1 0x24 PUSH1 0x0 REVERT JUMPDEST DUP4 PUSH1 0x0 MSTORE DUP3 PUSH1 0x20 PUSH1 0x0 KECCAK256 SWAP2 DUP3 ADD SWAP2 ADD JUMPDEST DUP2 DUP2 LT PUSH2 0x6F9 JUMPI POP PUSH2 0x564 JUMP JUMPDEST DUP1 PUSH2 0x706 PUSH1 0x1 SWAP3 SLOAD PUSH2 0x1A71 JUMP JUMPDEST DUP1 PUSH2 0x713 JUMPI JUMPDEST POP ADD PUSH2 0x6EC JUMP JUMPDEST PUSH1 0x1F DUP2 GT DUP4 EQ PUSH2 0x729 JUMPI POP PUSH1 0x0 DUP2 SSTORE JUMPDEST DUP8 PUSH2 0x70C JUMP JUMPDEST PUSH1 0x0 SWAP1 DUP3 DUP3 MSTORE PUSH2 0x747 PUSH1 0x1F PUSH1 0x20 DUP5 KECCAK256 SWAP3 ADD PUSH1 0x5 SHR DUP3 ADD DUP6 DUP4 ADD PUSH2 0x1D40 JUMP JUMPDEST DUP2 DUP4 SSTORE SSTORE PUSH2 0x723 JUMP JUMPDEST DUP1 MLOAD DUP1 MLOAD SWAP1 PUSH1 0x1 PUSH1 0x1 PUSH1 0x40 SHL SUB DUP3 GT PUSH2 0x6C6 JUMPI PUSH2 0x76D DUP7 SLOAD PUSH2 0x1A71 JUMP JUMPDEST PUSH1 0x1F DUP2 GT PUSH2 0x833 JUMPI JUMPDEST POP PUSH1 0x20 SWAP1 PUSH1 0x1F DUP4 GT PUSH1 0x1 EQ PUSH2 0x7C3 JUMPI SWAP3 DUP3 PUSH1 0x1 SWAP5 SWAP4 PUSH1 0x20 SWAP4 DUP7 SWAP6 PUSH1 0x0 SWAP3 PUSH2 0x7B8 JUMPI JUMPDEST POP POP PUSH1 0x0 NOT PUSH1 0x3 DUP4 SWAP1 SHL SHR NOT AND SWAP1 DUP5 SHL OR DUP8 SSTORE JUMPDEST ADD SWAP5 ADD SWAP2 ADD SWAP1 SWAP3 PUSH2 0x536 JUMP JUMPDEST ADD MLOAD SWAP1 POP DUP13 DUP1 PUSH2 0x798 JUMP JUMPDEST SWAP1 DUP7 PUSH1 0x0 MSTORE PUSH1 0x20 PUSH1 0x0 KECCAK256 SWAP2 PUSH1 0x0 JUMPDEST PUSH1 0x1F NOT DUP6 AND DUP2 LT PUSH2 0x81B JUMPI POP DUP4 PUSH1 0x20 SWAP4 PUSH1 0x1 SWAP7 SWAP4 DUP8 SWAP7 SWAP4 DUP8 SWAP5 PUSH1 0x1F NOT DUP2 AND LT PUSH2 0x802 JUMPI JUMPDEST POP POP POP DUP2 SHL ADD DUP8 SSTORE PUSH2 0x7AC JUMP JUMPDEST ADD MLOAD PUSH1 0x0 NOT PUSH1 0xF8 DUP5 PUSH1 0x3 SHL AND SHR NOT AND SWAP1 SSTORE DUP13 DUP1 DUP1 PUSH2 0x7F5 JUMP JUMPDEST SWAP2 SWAP3 PUSH1 0x20 PUSH1 0x1 DUP2 SWAP3 DUP7 DUP6 ADD MLOAD DUP2 SSTORE ADD SWAP5 ADD SWAP3 ADD PUSH2 0x7D1 JUMP JUMPDEST PUSH2 0x85F SWAP1 DUP8 PUSH1 0x0 MSTORE PUSH1 0x20 PUSH1 0x0 KECCAK256 PUSH1 0x1F DUP6 ADD PUSH1 0x5 SHR DUP2 ADD SWAP2 PUSH1 0x20 DUP7 LT PUSH2 0x6BC JUMPI PUSH1 0x1F ADD PUSH1 0x5 SHR ADD SWAP1 PUSH2 0x1D40 JUMP JUMPDEST DUP10 PUSH2 0x776 JUMP JUMPDEST PUSH1 0x7 DUP5 ADD PUSH1 0x0 MSTORE PUSH1 0x20 PUSH1 0x0 KECCAK256 SWAP1 DUP4 DUP3 ADD JUMPDEST DUP2 DUP4 ADD DUP2 LT PUSH2 0x886 JUMPI POP POP PUSH2 0x520 JUMP JUMPDEST DUP1 PUSH2 0x893 PUSH1 0x1 SWAP3 SLOAD PUSH2 0x1A71 JUMP JUMPDEST DUP1 PUSH2 0x8A0 JUMPI JUMPDEST POP ADD PUSH2 0x876 JUMP JUMPDEST PUSH1 0x1F DUP2 GT DUP4 EQ PUSH2 0x8B6 JUMPI POP PUSH1 0x0 DUP2 SSTORE JUMPDEST DUP10 PUSH2 0x899 JUMP JUMPDEST PUSH1 0x0 SWAP1 DUP3 DUP3 MSTORE PUSH2 0x8D4 PUSH1 0x1F PUSH1 0x20 DUP5 KECCAK256 SWAP3 ADD PUSH1 0x5 SHR DUP3 ADD DUP6 DUP4 ADD PUSH2 0x1D40 JUMP JUMPDEST DUP2 DUP4 SSTORE SSTORE PUSH2 0x8B0 JUMP JUMPDEST ADD MLOAD SWAP1 POP DUP6 DUP1 PUSH2 0x4A1 JUMP JUMPDEST PUSH1 0x4 DUP4 ADD PUSH1 0x0 MSTORE PUSH1 0x20 PUSH1 0x0 KECCAK256 SWAP1 PUSH1 0x0 JUMPDEST PUSH1 0x1F NOT DUP5 AND DUP2 LT PUSH2 0x93F JUMPI POP PUSH1 0x1 SWAP4 SWAP5 SWAP6 SWAP7 DUP4 PUSH1 0x1F NOT DUP2 AND LT PUSH2 0x926 JUMPI JUMPDEST POP POP POP DUP2 SHL ADD PUSH1 0x4 DUP3 ADD SSTORE PUSH2 0x4B9 JUMP JUMPDEST ADD MLOAD PUSH1 0x0 NOT PUSH1 0xF8 DUP5 PUSH1 0x3 SHL AND SHR NOT AND SWAP1 SSTORE DUP6 DUP1 DUP1 PUSH2 0x916 JUMP JUMPDEST SWAP1 SWAP2 PUSH1 0x20 PUSH1 0x1 DUP2 SWAP3 DUP6 DUP12 ADD MLOAD DUP2 SSTORE ADD SWAP4 ADD SWAP2 ADD PUSH2 0x8F8 JUMP JUMPDEST PUSH2 0x986 SWAP1 PUSH1 0x4 DUP5 ADD PUSH1 0x0 MSTORE PUSH1 0x20 PUSH1 0x0 KECCAK256 PUSH1 0x1F DUP5 ADD PUSH1 0x5 SHR DUP2 ADD SWAP2 PUSH1 0x20 DUP6 LT PUSH2 0x6BC JUMPI PUSH1 0x1F ADD PUSH1 0x5 SHR ADD SWAP1 PUSH2 0x1D40 JUMP JUMPDEST DUP6 PUSH2 0x486 JUMP JUMPDEST ADD MLOAD SWAP1 POP DUP6 DUP1 PUSH2 0x442 JUMP JUMPDEST PUSH1 0x3 DUP6 ADD PUSH1 0x0 MSTORE PUSH1 0x20 PUSH1 0x0 KECCAK256 SWAP1 PUSH1 0x0 JUMPDEST PUSH1 0x1F NOT DUP5 AND DUP2 LT PUSH2 0x9EE JUMPI POP PUSH1 0x1 SWAP4 SWAP5 SWAP6 SWAP7 DUP4 PUSH1 0x1F NOT DUP2 AND LT PUSH2 0x9D5 JUMPI JUMPDEST POP POP POP DUP2 SHL ADD PUSH1 0x3 DUP5 ADD SSTORE PUSH2 0x45A JUMP JUMPDEST ADD MLOAD PUSH1 0x0 NOT PUSH1 0xF8 DUP5 PUSH1 0x3 SHL AND SHR NOT AND SWAP1 SSTORE DUP6 DUP1 DUP1 PUSH2 0x9C5 JUMP JUMPDEST SWAP1 SWAP2 PUSH1 0x20 PUSH1 0x1 DUP2 SWAP3 DUP6 DUP12 ADD MLOAD DUP2 SSTORE ADD SWAP4 ADD SWAP2 ADD PUSH2 0x9A7 JUMP JUMPDEST PUSH2 0xA35 SWAP1 PUSH1 0x3 DUP7 ADD PUSH1 0x0 MSTORE PUSH1 0x20 PUSH1 0x0 KECCAK256 PUSH1 0x1F DUP5 ADD PUSH1 0x5 SHR DUP2 ADD SWAP2 PUSH1 0x20 DUP6 LT PUSH2 0x6BC JUMPI PUSH1 0x1F ADD PUSH1 0x5 SHR ADD SWAP1 PUSH2 0x1D40 JUMP JUMPDEST DUP6 PUSH2 0x427 JUMP JUMPDEST ADD MLOAD SWAP1 POP DUP6 DUP1 PUSH2 0x3E3 JUMP JUMPDEST PUSH1 0x2 DUP5 ADD PUSH1 0x0 MSTORE PUSH1 0x20 PUSH1 0x0 KECCAK256 SWAP1 PUSH1 0x0 JUMPDEST PUSH1 0x1F NOT DUP5 AND DUP2 LT PUSH2 0xA9D JUMPI POP PUSH1 0x1 SWAP4 SWAP5 SWAP6 SWAP7 DUP4 PUSH1 0x1F NOT DUP2 AND LT PUSH2 0xA84 JUMPI JUMPDEST POP POP POP DUP2 SHL ADD PUSH1 0x2 DUP4 ADD SSTORE PUSH2 0x3FB JUMP JUMPDEST ADD MLOAD PUSH1 0x0 NOT PUSH1 0xF8 DUP5 PUSH1 0x3 SHL AND SHR NOT AND SWAP1 SSTORE DUP6 DUP1 DUP1 PUSH2 0xA74 JUMP JUMPDEST SWAP1 SWAP2 PUSH1 0x20 PUSH1 0x1 DUP2 SWAP3 DUP6 DUP12 ADD MLOAD DUP2 SSTORE ADD SWAP4 ADD SWAP2 ADD PUSH2 0xA56 JUMP JUMPDEST PUSH2 0xAE4 SWAP1 PUSH1 0x2 DUP6 ADD PUSH1 0x0 MSTORE PUSH1 0x20 PUSH1 0x0 KECCAK256 PUSH1 0x1F DUP5 ADD PUSH1 0x5 SHR DUP2 ADD SWAP2 PUSH1 0x20 DUP6 LT PUSH2 0x6BC JUMPI PUSH1 0x1F ADD PUSH1 0x5 SHR ADD SWAP1 PUSH2 0x1D40 JUMP JUMPDEST DUP6 PUSH2 0x3C8 JUMP JUMPDEST PUSH1 0x40 MLOAD PUSH3 0x461BCD PUSH1 0xE5 SHL DUP2 MSTORE PUSH1 0x20 PUSH1 0x4 DUP3 ADD MSTORE PUSH1 0xF PUSH1 0x24 DUP3 ADD MSTORE PUSH15 0x139BDD081DDA1A5D195B1A5CDD1959 PUSH1 0x8A SHL PUSH1 0x44 DUP3 ADD MSTORE PUSH1 0x64 SWAP1 REVERT JUMPDEST POP PUSH1 0x2 SLOAD PUSH1 0x1 PUSH1 0x1 PUSH1 0xA0 SHL SUB AND CALLER EQ PUSH2 0x2D0 JUMP JUMPDEST CALLVALUE PUSH2 0x131 JUMPI PUSH1 0x20 CALLDATASIZE PUSH1 0x3 NOT ADD SLT PUSH2 0x131 JUMPI PUSH1 0x4 CALLDATALOAD PUSH1 0x0 SWAP1 DUP2 MSTORE PUSH1 0x5 PUSH1 0x20 MSTORE PUSH1 0x40 SWAP1 KECCAK256 DUP1 SLOAD PUSH1 0x1 DUP3 ADD SLOAD PUSH1 0x1 PUSH1 0x1 PUSH1 0xA0 SHL SUB AND SWAP2 PUSH1 0xFF PUSH2 0xB76 PUSH1 0x2 DUP4 ADD PUSH2 0x1B04 JUMP JUMPDEST PUSH2 0xBDD PUSH2 0xB85 PUSH1 0x3 DUP6 ADD PUSH2 0x1B04 JUMP JUMPDEST PUSH2 0xBCF PUSH2 0xB94 PUSH1 0x4 DUP8 ADD PUSH2 0x1B04 JUMP JUMPDEST SWAP2 PUSH2 0xBC1 PUSH1 0x6 PUSH1 0x5 DUP10 ADD SLOAD SWAP9 ADD SLOAD SWAP6 PUSH1 0x40 MLOAD SWAP11 DUP12 SWAP11 DUP12 MSTORE PUSH1 0x20 DUP12 ADD MSTORE PUSH2 0x100 DUP1 PUSH1 0x40 DUP13 ADD MSTORE DUP11 ADD SWAP1 PUSH2 0x19B0 JUMP JUMPDEST SWAP1 DUP9 DUP3 SUB PUSH1 0x60 DUP11 ADD MSTORE PUSH2 0x19B0 JUMP JUMPDEST SWAP1 DUP7 DUP3 SUB PUSH1 0x80 DUP9 ADD MSTORE PUSH2 0x19B0 JUMP JUMPDEST SWAP3 PUSH1 0xA0 DUP6 ADD MSTORE DUP2 DUP2 AND PUSH1 0xC0 DUP6 ADD MSTORE PUSH1 0x8 SHR AND ISZERO ISZERO PUSH1 0xE0 DUP4 ADD MSTORE SUB SWAP1 RETURN JUMPDEST CALLVALUE PUSH2 0x131 JUMPI PUSH1 0x0 CALLDATASIZE PUSH1 0x3 NOT ADD SLT PUSH2 0x131 JUMPI PUSH1 0x20 PUSH1 0x4 SLOAD PUSH1 0x40 MLOAD SWAP1 DUP2 MSTORE RETURN JUMPDEST CALLVALUE PUSH2 0x131 JUMPI PUSH1 0x40 CALLDATASIZE PUSH1 0x3 NOT ADD SLT PUSH2 0x131 JUMPI PUSH1 0x4 CALLDATALOAD PUSH2 0xC34 PUSH2 0x1A62 JUMP JUMPDEST PUSH1 0x0 DUP3 DUP2 MSTORE PUSH1 0x5 PUSH1 0x20 MSTORE PUSH1 0x40 SWAP1 KECCAK256 PUSH1 0x1 ADD SLOAD CALLER PUSH1 0x1 PUSH1 0x1 PUSH1 0xA0 SHL SUB SWAP2 DUP3 AND EQ SWAP1 DUP2 ISZERO PUSH2 0xCC3 JUMPI JUMPDEST POP ISZERO PUSH2 0xC8D JUMPI PUSH2 0x16 SWAP2 PUSH1 0x0 MSTORE PUSH1 0x5 PUSH1 0x20 MSTORE PUSH1 0x6 PUSH1 0x40 PUSH1 0x0 KECCAK256 ADD SWAP1 PUSH2 0xFF00 DUP3 SLOAD SWAP2 ISZERO ISZERO PUSH1 0x8 SHL AND SWAP1 PUSH2 0xFF00 NOT AND OR SWAP1 SSTORE JUMP JUMPDEST PUSH1 0x40 MLOAD PUSH3 0x461BCD PUSH1 0xE5 SHL DUP2 MSTORE PUSH1 0x20 PUSH1 0x4 DUP3 ADD MSTORE PUSH1 0xE PUSH1 0x24 DUP3 ADD MSTORE PUSH14 0x139BDD08185D5D1A1BDC9A5E9959 PUSH1 0x92 SHL PUSH1 0x44 DUP3 ADD MSTORE PUSH1 0x64 SWAP1 REVERT JUMPDEST SWAP1 POP PUSH1 0x2 SLOAD AND CALLER EQ DUP4 PUSH2 0xC5B JUMP JUMPDEST CALLVALUE PUSH2 0x131 JUMPI PUSH1 0x40 CALLDATASIZE PUSH1 0x3 NOT ADD SLT PUSH2 0x131 JUMPI PUSH2 0xCEA PUSH2 0x1A4C JUMP JUMPDEST PUSH2 0xCF2 PUSH2 0x1A62 JUMP JUMPDEST PUSH1 0x2 SLOAD SWAP1 SWAP2 PUSH1 0x1 PUSH1 0x1 PUSH1 0xA0 SHL SUB SWAP2 PUSH2 0xD0D SWAP1 DUP4 AND CALLER EQ PUSH2 0x1E1F JUMP JUMPDEST AND PUSH1 0x0 MSTORE PUSH1 0x7 PUSH1 0x20 MSTORE PUSH1 0x40 PUSH1 0x0 KECCAK256 SWAP1 PUSH1 0xFF DUP1 NOT DUP4 SLOAD AND SWAP2 ISZERO ISZERO AND OR SWAP1 SSTORE PUSH1 0x0 DUP1 RETURN JUMPDEST CALLVALUE PUSH2 0x131 JUMPI PUSH1 0x0 CALLDATASIZE PUSH1 0x3 NOT ADD SLT PUSH2 0x131 JUMPI PUSH1 0x20 PUSH1 0x3 SLOAD PUSH1 0x40 MLOAD SWAP1 DUP2 MSTORE RETURN JUMPDEST CALLVALUE PUSH2 0x131 JUMPI PUSH1 0x0 CALLDATASIZE PUSH1 0x3 NOT ADD SLT PUSH2 0x131 JUMPI PUSH1 0x0 SLOAD PUSH1 0x40 MLOAD PUSH1 0x1 PUSH1 0x1 PUSH1 0xA0 SHL SUB SWAP1 SWAP2 AND DUP2 MSTORE PUSH1 0x20 SWAP1 RETURN JUMPDEST CALLVALUE PUSH2 0x131 JUMPI PUSH1 0x20 CALLDATASIZE PUSH1 0x3 NOT ADD SLT PUSH2 0x131 JUMPI PUSH1 0x1 PUSH1 0x1 PUSH1 0xA0 SHL SUB PUSH2 0xD97 PUSH2 0x1A4C JUMP JUMPDEST AND PUSH1 0x0 MSTORE PUSH1 0x7 PUSH1 0x20 MSTORE PUSH1 0x20 PUSH1 0xFF PUSH1 0x40 PUSH1 0x0 KECCAK256 SLOAD AND PUSH1 0x40 MLOAD SWAP1 ISZERO ISZERO DUP2 MSTORE RETURN JUMPDEST CALLVALUE PUSH2 0x131 JUMPI PUSH1 0x0 CALLDATASIZE PUSH1 0x3 NOT ADD SLT PUSH2 0x131 JUMPI PUSH2 0xDCE PUSH2 0x1C07 JUMP JUMPDEST PUSH1 0x0 DUP1 SLOAD PUSH1 0x1 PUSH1 0x1 PUSH1 0xA0 SHL SUB NOT DUP2 AND DUP3 SSTORE PUSH1 0x1 PUSH1 0x1 PUSH1 0xA0 SHL SUB AND PUSH32 0x8BE0079C531659141344CD1FD0A4F28419497F9722A3DAAFE3B4186F6B6457E0 DUP3 DUP1 LOG3 STOP JUMPDEST CALLVALUE PUSH2 0x131 JUMPI PUSH1 0x20 CALLDATASIZE PUSH1 0x3 NOT ADD SLT PUSH2 0x131 JUMPI PUSH1 0x0 PUSH2 0x160 PUSH1 0x40 MLOAD PUSH2 0xE30 DUP2 PUSH2 0x1AC7 JUMP JUMPDEST DUP3 DUP2 MSTORE DUP3 PUSH1 0x20 DUP3 ADD MSTORE DUP3 PUSH1 0x40 DUP3 ADD MSTORE DUP3 PUSH1 0x60 DUP3 ADD MSTORE DUP3 PUSH1 0x80 DUP3 ADD MSTORE DUP3 PUSH1 0xA0 DUP3 ADD MSTORE DUP3 PUSH1 0xC0 DUP3 ADD MSTORE DUP3 PUSH1 0xE0 DUP3 ADD MSTORE DUP3 PUSH2 0x100 DUP3 ADD MSTORE DUP3 PUSH2 0x120 DUP3 ADD MSTORE DUP3 PUSH2 0x140 DUP3 ADD MSTORE ADD MSTORE PUSH1 0x4 CALLDATALOAD PUSH1 0x0 MSTORE PUSH1 0x6 PUSH1 0x20 MSTORE PUSH1 0x40 PUSH1 0x0 KECCAK256 PUSH1 0x40 MLOAD PUSH2 0xE90 DUP2 PUSH2 0x1AC7 JUMP JUMPDEST DUP2 SLOAD DUP2 MSTORE PUSH1 0x1 DUP3 ADD SLOAD PUSH1 0x20 DUP3 ADD MSTORE PUSH1 0x2 DUP3 ADD SLOAD PUSH1 0x1 PUSH1 0x1 PUSH1 0xA0 SHL SUB AND PUSH1 0x40 DUP3 ADD MSTORE PUSH1 0x3 DUP3 ADD SLOAD PUSH1 0x60 DUP3 ADD MSTORE PUSH1 0x4 DUP3 ADD SLOAD PUSH1 0x80 DUP3 ADD MSTORE PUSH1 0x5 DUP1 DUP4 ADD SLOAD PUSH1 0xFF SWAP1 DUP2 AND PUSH1 0xA0 DUP5 ADD MSTORE PUSH1 0x6 DUP5 ADD SLOAD PUSH1 0xC0 DUP5 ADD MSTORE PUSH1 0x7 DUP5 ADD SLOAD PUSH1 0xE0 DUP5 ADD MSTORE PUSH1 0x8 DUP5 ADD SLOAD PUSH2 0x100 DUP5 ADD MSTORE PUSH1 0x9 DUP5 ADD SLOAD AND SWAP1 DUP2 LT ISZERO PUSH2 0xFB4 JUMPI PUSH2 0x180 SWAP3 PUSH1 0xB SWAP2 PUSH2 0x120 DUP5 ADD MSTORE PUSH1 0xA DUP2 ADD SLOAD PUSH2 0x140 DUP5 ADD MSTORE ADD SLOAD PUSH2 0x160 DUP3 ADD MSTORE PUSH2 0x160 PUSH1 0x40 MLOAD SWAP2 DUP1 MLOAD DUP4 MSTORE PUSH1 0x20 DUP2 ADD MLOAD PUSH1 0x20 DUP5 ADD MSTORE PUSH1 0x1 DUP1 PUSH1 0xA0 SHL SUB PUSH1 0x40 DUP3 ADD MLOAD AND PUSH1 0x40 DUP5 ADD MSTORE PUSH1 0x60 DUP2 ADD MLOAD PUSH1 0x60 DUP5 ADD MSTORE PUSH1 0x80 DUP2 ADD MLOAD PUSH1 0x80 DUP5 ADD MSTORE PUSH1 0xFF PUSH1 0xA0 DUP3 ADD MLOAD AND PUSH1 0xA0 DUP5 ADD MSTORE PUSH1 0xC0 DUP2 ADD MLOAD PUSH1 0xC0 DUP5 ADD MSTORE PUSH1 0xE0 DUP2 ADD MLOAD PUSH1 0xE0 DUP5 ADD MSTORE PUSH2 0x100 DUP2 ADD MLOAD PUSH2 0x100 DUP5 ADD MSTORE PUSH2 0xF9E PUSH2 0x120 DUP3 ADD MLOAD PUSH2 0x120 DUP6 ADD SWAP1 PUSH2 0x19A3 JUMP JUMPDEST PUSH2 0x140 DUP2 ADD MLOAD PUSH2 0x140 DUP5 ADD MSTORE ADD MLOAD PUSH2 0x160 DUP3 ADD MSTORE RETURN JUMPDEST PUSH4 0x4E487B71 PUSH1 0xE0 SHL PUSH1 0x0 MSTORE PUSH1 0x21 PUSH1 0x4 MSTORE PUSH1 0x24 PUSH1 0x0 REVERT JUMPDEST CALLVALUE PUSH2 0x131 JUMPI PUSH1 0x20 CALLDATASIZE PUSH1 0x3 NOT ADD SLT PUSH2 0x131 JUMPI PUSH1 0x4 CALLDATALOAD PUSH2 0xFFFF DUP2 AND SWAP1 DUP2 DUP2 SUB PUSH2 0x131 JUMPI PUSH1 0x2 SLOAD SWAP2 PUSH2 0x2710 SWAP1 PUSH2 0x1007 CALLER PUSH1 0x1 PUSH1 0x1 PUSH1 0xA0 SHL SUB DUP7 AND EQ PUSH2 0x1E1F JUMP JUMPDEST GT PUSH2 0x1029 JUMPI PUSH2 0xFFFF PUSH1 0xA0 SHL NOT SWAP1 SWAP2 AND PUSH1 0xA0 SWAP2 SWAP1 SWAP2 SHL PUSH2 0xFFFF PUSH1 0xA0 SHL AND OR PUSH1 0x2 SSTORE STOP JUMPDEST PUSH1 0x40 MLOAD PUSH3 0x461BCD PUSH1 0xE5 SHL DUP2 MSTORE PUSH1 0x20 PUSH1 0x4 DUP3 ADD MSTORE PUSH1 0xB PUSH1 0x24 DUP3 ADD MSTORE PUSH11 0x496E76616C696420666565 PUSH1 0xA8 SHL PUSH1 0x44 DUP3 ADD MSTORE PUSH1 0x64 SWAP1 REVERT JUMPDEST CALLVALUE PUSH2 0x131 JUMPI PUSH1 0x20 CALLDATASIZE PUSH1 0x3 NOT ADD SLT PUSH2 0x131 JUMPI PUSH1 0x60 PUSH2 0x120 PUSH1 0x40 MLOAD PUSH2 0x107E DUP2 PUSH2 0x1AAB JUMP JUMPDEST PUSH1 0x0 DUP2 MSTORE PUSH1 0x0 PUSH1 0x20 DUP3 ADD MSTORE DUP3 PUSH1 0x40 DUP3 ADD MSTORE DUP3 DUP1 DUP3 ADD MSTORE DUP3 PUSH1 0x80 DUP3 ADD MSTORE PUSH1 0x0 PUSH1 0xA0 DUP3 ADD MSTORE PUSH1 0x0 PUSH1 0xC0 DUP3 ADD MSTORE PUSH1 0x0 PUSH1 0xE0 DUP3 ADD MSTORE DUP3 PUSH2 0x100 DUP3 ADD MSTORE ADD MSTORE PUSH1 0x4 CALLDATALOAD PUSH1 0x0 MSTORE PUSH1 0x5 PUSH1 0x20 MSTORE PUSH2 0x122B PUSH1 0x40 PUSH1 0x0 KECCAK256 PUSH2 0x1162 PUSH1 0x8 PUSH1 0x40 MLOAD SWAP3 PUSH2 0x10DD DUP5 PUSH2 0x1AAB JUMP JUMPDEST DUP1 SLOAD DUP5 MSTORE PUSH1 0x1 DUP2 ADD SLOAD PUSH1 0x1 PUSH1 0x1 PUSH1 0xA0 SHL SUB AND PUSH1 0x20 DUP6 ADD MSTORE PUSH2 0x1100 PUSH1 0x2 DUP3 ADD PUSH2 0x1B04 JUMP JUMPDEST PUSH1 0x40 DUP6 ADD MSTORE PUSH2 0x1111 PUSH1 0x3 DUP3 ADD PUSH2 0x1B04 JUMP JUMPDEST PUSH1 0x60 DUP6 ADD MSTORE PUSH2 0x1122 PUSH1 0x4 DUP3 ADD PUSH2 0x1B04 JUMP JUMPDEST PUSH1 0x80 DUP6 ADD MSTORE PUSH1 0x5 DUP2 ADD SLOAD PUSH1 0xA0 DUP6 ADD MSTORE PUSH1 0xFF PUSH1 0x6 DUP3 ADD SLOAD DUP2 DUP2 AND PUSH1 0xC0 DUP8 ADD MSTORE DUP4 SHR AND ISZERO ISZERO PUSH1 0xE0 DUP6 ADD MSTORE PUSH2 0x1156 PUSH1 0x7 DUP3 ADD PUSH2 0x1D6A JUMP JUMPDEST PUSH2 0x100 DUP6 ADD MSTORE ADD PUSH2 0x1D6A JUMP JUMPDEST PUSH2 0x120 DUP3 ADD MSTORE PUSH1 0x40 MLOAD SWAP2 DUP3 SWAP2 PUSH1 0x20 DUP4 MSTORE DUP1 MLOAD PUSH1 0x20 DUP5 ADD MSTORE PUSH1 0x1 DUP1 PUSH1 0xA0 SHL SUB PUSH1 0x20 DUP3 ADD MLOAD AND PUSH1 0x40 DUP5 ADD MSTORE PUSH1 0x40 DUP2 ADD MLOAD PUSH2 0x11A8 PUSH2 0x140 SWAP2 DUP3 PUSH1 0x60 DUP8 ADD MSTORE PUSH2 0x160 DUP7 ADD SWAP1 PUSH2 0x19B0 JUMP JUMPDEST SWAP1 PUSH2 0x120 PUSH2 0x121A PUSH2 0x11E2 PUSH2 0x11CE PUSH1 0x60 DUP8 ADD MLOAD SWAP6 PUSH1 0x1F NOT SWAP7 DUP8 DUP12 DUP4 SUB ADD PUSH1 0x80 DUP13 ADD MSTORE PUSH2 0x19B0 JUMP JUMPDEST PUSH1 0x80 DUP8 ADD MLOAD DUP7 DUP11 DUP4 SUB ADD PUSH1 0xA0 DUP12 ADD MSTORE PUSH2 0x19B0 JUMP JUMPDEST PUSH1 0xA0 DUP7 ADD MLOAD PUSH1 0xC0 DUP10 ADD MSTORE PUSH1 0xFF PUSH1 0xC0 DUP8 ADD MLOAD AND PUSH1 0xE0 DUP10 ADD MSTORE PUSH1 0xE0 DUP7 ADD MLOAD ISZERO ISZERO PUSH2 0x100 DUP10 ADD MSTORE PUSH2 0x100 DUP7 ADD MLOAD DUP6 DUP10 DUP4 SUB ADD DUP5 DUP11 ADD MSTORE PUSH2 0x19F0 JUMP JUMPDEST SWAP4 ADD MLOAD SWAP2 DUP6 DUP5 SUB ADD SWAP1 DUP6 ADD MSTORE PUSH2 0x19F0 JUMP JUMPDEST SUB SWAP1 RETURN JUMPDEST CALLVALUE PUSH2 0x131 JUMPI PUSH1 0x0 CALLDATASIZE PUSH1 0x3 NOT ADD SLT PUSH2 0x131 JUMPI PUSH1 0x20 PUSH2 0xFFFF PUSH1 0x2 SLOAD PUSH1 0xA0 SHR AND PUSH1 0x40 MLOAD SWAP1 DUP2 MSTORE RETURN JUMPDEST CALLVALUE PUSH2 0x131 JUMPI PUSH1 0x20 CALLDATASIZE PUSH1 0x3 NOT ADD SLT PUSH2 0x131 JUMPI PUSH1 0x4 CALLDATALOAD PUSH1 0x0 MSTORE PUSH1 0x6 PUSH1 0x20 MSTORE PUSH2 0x180 PUSH1 0x40 PUSH1 0x0 KECCAK256 DUP1 SLOAD SWAP1 PUSH1 0x1 DUP2 ADD SLOAD SWAP1 PUSH2 0x1303 PUSH1 0x1 DUP1 PUSH1 0xA0 SHL SUB PUSH1 0x2 DUP4 ADD SLOAD AND PUSH1 0x3 DUP4 ADD SLOAD PUSH1 0x4 DUP5 ADD SLOAD PUSH1 0xFF PUSH1 0x5 DUP7 ADD SLOAD AND PUSH1 0x6 DUP7 ADD SLOAD SWAP1 PUSH1 0x7 DUP8 ADD SLOAD SWAP3 PUSH1 0x8 DUP9 ADD SLOAD SWAP5 PUSH1 0xFF PUSH1 0x9 DUP11 ADD SLOAD AND SWAP7 PUSH1 0xB PUSH1 0xA DUP12 ADD SLOAD SWAP11 ADD SLOAD SWAP11 PUSH1 0x40 MLOAD SWAP13 DUP14 MSTORE PUSH1 0x20 DUP14 ADD MSTORE PUSH1 0x40 DUP13 ADD MSTORE PUSH1 0x60 DUP12 ADD MSTORE PUSH1 0x80 DUP11 ADD MSTORE PUSH1 0xA0 DUP10 ADD MSTORE PUSH1 0xC0 DUP9 ADD MSTORE PUSH1 0xE0 DUP8 ADD MSTORE PUSH2 0x100 DUP7 ADD MSTORE PUSH2 0x120 DUP6 ADD SWAP1 PUSH2 0x19A3 JUMP JUMPDEST PUSH2 0x140 DUP4 ADD MSTORE PUSH2 0x160 DUP3 ADD MSTORE RETURN JUMPDEST CALLVALUE PUSH2 0x131 JUMPI PUSH1 0x20 DUP1 PUSH1 0x3 NOT CALLDATASIZE ADD SLT PUSH2 0x131 JUMPI PUSH1 0x4 CALLDATALOAD SWAP1 PUSH1 0x1 DUP1 PUSH1 0xA0 SHL SUB PUSH2 0x133D DUP2 PUSH1 0x2 SLOAD AND CALLER EQ PUSH2 0x1E1F JUMP JUMPDEST PUSH2 0x1345 PUSH2 0x1DCC JUMP JUMPDEST DUP3 PUSH1 0x0 MSTORE PUSH1 0x6 DUP3 MSTORE PUSH1 0x40 PUSH1 0x0 KECCAK256 PUSH1 0x9 DUP2 ADD DUP1 SLOAD PUSH1 0xFF DUP2 AND PUSH1 0x5 DUP2 LT ISZERO PUSH2 0xFB4 JUMPI PUSH1 0x1 SUB PUSH2 0x1412 JUMPI PUSH1 0x0 DUP1 SWAP5 DUP2 SWAP5 DUP3 SWAP5 PUSH1 0x3 DUP5 SWAP6 PUSH1 0xFF NOT AND OR SWAP1 SSTORE PUSH1 0xB TIMESTAMP SWAP2 ADD SSTORE DUP8 DUP3 MSTORE PUSH1 0x8 DUP8 MSTORE PUSH1 0x40 DUP3 KECCAK256 SWAP1 DUP2 SLOAD SWAP7 DUP8 SWAP3 SSTORE PUSH1 0x2 SLOAD AND GAS CALL PUSH2 0x13A5 PUSH2 0x1DEF JUMP JUMPDEST POP ISZERO PUSH2 0x13DB JUMPI SWAP1 PUSH32 0x7C216D827663830A8EAF435519E88EBB0B1C00DCCAF021972073A54C9535C3DA SWAP2 PUSH1 0x40 MLOAD SWAP1 DUP2 MSTORE LOG2 PUSH1 0x1 DUP1 SSTORE STOP JUMPDEST PUSH1 0x40 MLOAD PUSH3 0x461BCD PUSH1 0xE5 SHL DUP2 MSTORE PUSH1 0x4 DUP2 ADD DUP4 SWAP1 MSTORE PUSH1 0xF PUSH1 0x24 DUP3 ADD MSTORE PUSH15 0x151C985B9CD9995C8819985A5B1959 PUSH1 0x8A SHL PUSH1 0x44 DUP3 ADD MSTORE PUSH1 0x64 SWAP1 REVERT JUMPDEST PUSH1 0x40 MLOAD PUSH3 0x461BCD PUSH1 0xE5 SHL DUP2 MSTORE PUSH1 0x4 DUP2 ADD DUP7 SWAP1 MSTORE PUSH1 0xE PUSH1 0x24 DUP3 ADD MSTORE PUSH14 0x496E76616C696420737461747573 PUSH1 0x90 SHL PUSH1 0x44 DUP3 ADD MSTORE PUSH1 0x64 SWAP1 REVERT JUMPDEST PUSH1 0x60 CALLDATASIZE PUSH1 0x3 NOT ADD SLT PUSH2 0x131 JUMPI PUSH2 0x145C PUSH2 0x1DCC JUMP JUMPDEST PUSH1 0x4 CALLDATALOAD PUSH1 0x0 MSTORE PUSH1 0x5 PUSH1 0x20 MSTORE PUSH1 0x40 PUSH1 0x0 KECCAK256 PUSH1 0x40 MLOAD SWAP1 PUSH2 0x1479 DUP3 PUSH2 0x1AAB JUMP JUMPDEST DUP1 SLOAD DUP3 MSTORE PUSH1 0x1 DUP2 ADD SLOAD PUSH1 0x1 PUSH1 0x1 PUSH1 0xA0 SHL SUB AND PUSH1 0x20 DUP4 ADD MSTORE PUSH2 0x149C PUSH1 0x2 DUP3 ADD PUSH2 0x1B04 JUMP JUMPDEST PUSH1 0x40 DUP4 ADD MSTORE PUSH2 0x14AD PUSH1 0x3 DUP3 ADD PUSH2 0x1B04 JUMP JUMPDEST PUSH1 0x60 DUP4 ADD MSTORE PUSH2 0x14BE PUSH1 0x4 DUP3 ADD PUSH2 0x1B04 JUMP JUMPDEST PUSH1 0x80 DUP4 ADD MSTORE PUSH1 0x5 DUP2 ADD SLOAD PUSH1 0xA0 DUP4 ADD MSTORE PUSH2 0x1507 PUSH1 0x8 PUSH1 0x6 DUP4 ADD SLOAD SWAP3 PUSH1 0xFF DUP5 AND PUSH1 0xC0 DUP7 ADD MSTORE PUSH1 0xFF PUSH1 0xE0 DUP7 ADD SWAP5 DUP4 SHR AND ISZERO ISZERO DUP5 MSTORE PUSH2 0x14FB PUSH1 0x7 DUP3 ADD PUSH2 0x1D6A JUMP JUMPDEST PUSH2 0x100 DUP7 ADD MSTORE ADD PUSH2 0x1D6A JUMP JUMPDEST PUSH2 0x120 DUP4 ADD MSTORE MLOAD ISZERO PUSH2 0x173C JUMPI PUSH1 0x24 CALLDATALOAD PUSH1 0x44 CALLDATALOAD GT ISZERO PUSH2 0x1707 JUMPI PUSH1 0xFF PUSH3 0x15180 PUSH2 0x1533 PUSH1 0x24 CALLDATALOAD PUSH1 0x44 CALLDATALOAD PUSH2 0x1DBF JUMP JUMPDEST DIV AND PUSH2 0x1543 DUP2 PUSH1 0xA0 DUP5 ADD MLOAD PUSH2 0x1D57 JUMP JUMPDEST CALLVALUE ISZERO ISZERO DUP1 PUSH2 0x16FD JUMPI JUMPDEST ISZERO PUSH2 0x16C6 JUMPI PUSH1 0xA0 PUSH2 0x155E PUSH1 0x4 SLOAD PUSH2 0x1C33 JUMP JUMPDEST SWAP4 DUP5 PUSH1 0x4 SSTORE ADD MLOAD PUSH1 0x40 MLOAD SWAP3 PUSH2 0x1572 DUP5 PUSH2 0x1AC7 JUMP JUMPDEST DUP5 DUP5 MSTORE PUSH1 0x4 CALLDATALOAD PUSH1 0x20 DUP6 ADD MSTORE CALLER PUSH1 0x40 DUP6 ADD MSTORE PUSH1 0x24 CALLDATALOAD PUSH1 0x60 DUP6 ADD MSTORE PUSH1 0x44 CALLDATALOAD PUSH1 0x80 DUP6 ADD MSTORE PUSH1 0xA0 DUP5 ADD MSTORE PUSH1 0xC0 DUP4 ADD MSTORE PUSH1 0xE0 DUP3 ADD MSTORE CALLVALUE PUSH2 0x100 DUP3 ADD MSTORE PUSH1 0x1 PUSH2 0x120 DUP3 ADD MSTORE TIMESTAMP PUSH2 0x140 DUP3 ADD MSTORE PUSH1 0x0 PUSH2 0x160 DUP3 ADD MSTORE DUP2 PUSH1 0x0 MSTORE PUSH1 0x6 PUSH1 0x20 MSTORE PUSH1 0x40 PUSH1 0x0 KECCAK256 SWAP1 DUP1 MLOAD DUP3 SSTORE PUSH1 0x20 DUP2 ADD MLOAD PUSH1 0x1 DUP4 ADD SSTORE PUSH1 0x2 DUP3 ADD PUSH1 0x1 DUP1 PUSH1 0xA0 SHL SUB PUSH1 0x40 DUP4 ADD MLOAD AND PUSH1 0x1 PUSH1 0x1 PUSH1 0x60 SHL SUB PUSH1 0xA0 SHL DUP3 SLOAD AND OR SWAP1 SSTORE PUSH1 0x60 DUP2 ADD MLOAD PUSH1 0x3 DUP4 ADD SSTORE PUSH1 0x80 DUP2 ADD MLOAD PUSH1 0x4 DUP4 ADD SSTORE PUSH1 0x5 DUP3 ADD PUSH1 0xFF PUSH1 0xA0 DUP4 ADD MLOAD AND SWAP1 PUSH1 0xFF NOT SWAP2 DUP3 DUP3 SLOAD AND OR SWAP1 SSTORE PUSH1 0xC0 DUP3 ADD MLOAD PUSH1 0x6 DUP5 ADD SSTORE PUSH1 0xE0 DUP3 ADD MLOAD PUSH1 0x7 DUP5 ADD SSTORE PUSH2 0x100 DUP3 ADD MLOAD PUSH1 0x8 DUP5 ADD SSTORE PUSH1 0x9 DUP4 ADD SWAP2 PUSH2 0x120 DUP2 ADD MLOAD SWAP3 PUSH1 0x5 DUP5 LT ISZERO PUSH2 0xFB4 JUMPI PUSH1 0xB SWAP4 PUSH1 0xFF PUSH2 0x160 SWAP5 DUP4 SLOAD AND SWAP2 AND OR SWAP1 SSTORE PUSH2 0x140 DUP2 ADD MLOAD PUSH1 0xA DUP6 ADD SSTORE ADD MLOAD SWAP2 ADD SSTORE DUP1 PUSH1 0x0 MSTORE PUSH1 0x8 PUSH1 0x20 MSTORE CALLVALUE PUSH1 0x40 PUSH1 0x0 KECCAK256 SSTORE PUSH1 0x40 MLOAD CALLVALUE DUP2 MSTORE CALLER SWAP2 PUSH32 0xEE9369022EC7E3819F7112CCF704BF01EA7E76226ACF7CD06CA5E6DACC71DA2F PUSH1 0x20 PUSH1 0x4 CALLDATALOAD SWAP4 LOG4 PUSH1 0x1 DUP1 SSTORE STOP JUMPDEST PUSH1 0x40 MLOAD PUSH3 0x461BCD PUSH1 0xE5 SHL DUP2 MSTORE PUSH1 0x20 PUSH1 0x4 DUP3 ADD MSTORE PUSH1 0xF PUSH1 0x24 DUP3 ADD MSTORE PUSH15 0x125B9D985B1A590819195C1BDCDA5D PUSH1 0x8A SHL PUSH1 0x44 DUP3 ADD MSTORE PUSH1 0x64 SWAP1 REVERT JUMPDEST POP DUP1 CALLVALUE GT ISZERO PUSH2 0x154C JUMP JUMPDEST PUSH1 0x40 MLOAD PUSH3 0x461BCD PUSH1 0xE5 SHL DUP2 MSTORE PUSH1 0x20 PUSH1 0x4 DUP3 ADD MSTORE PUSH1 0xD PUSH1 0x24 DUP3 ADD MSTORE PUSH13 0x496E76616C6964206461746573 PUSH1 0x98 SHL PUSH1 0x44 DUP3 ADD MSTORE PUSH1 0x64 SWAP1 REVERT JUMPDEST PUSH1 0x40 MLOAD PUSH3 0x461BCD PUSH1 0xE5 SHL DUP2 MSTORE PUSH1 0x20 PUSH1 0x4 DUP3 ADD MSTORE PUSH1 0xD PUSH1 0x24 DUP3 ADD MSTORE PUSH13 0x4E6F7420617661696C61626C65 PUSH1 0x98 SHL PUSH1 0x44 DUP3 ADD MSTORE PUSH1 0x64 SWAP1 REVERT JUMPDEST CALLVALUE PUSH2 0x131 JUMPI PUSH1 0x20 DUP1 PUSH1 0x3 NOT CALLDATASIZE ADD SLT PUSH2 0x131 JUMPI PUSH1 0x4 CALLDATALOAD SWAP1 PUSH2 0x178F PUSH2 0x1DCC JUMP JUMPDEST PUSH1 0x0 DUP3 DUP2 MSTORE PUSH1 0x6 DUP3 MSTORE PUSH1 0x40 SWAP1 KECCAK256 PUSH1 0x2 DUP2 ADD SLOAD SWAP1 SWAP2 PUSH1 0x1 PUSH1 0x1 PUSH1 0xA0 SHL SUB SWAP2 DUP3 AND CALLER SUB PUSH2 0x196C JUMPI PUSH1 0x3 DUP4 ADD SLOAD TIMESTAMP LT ISZERO PUSH2 0x1933 JUMPI PUSH1 0x9 DUP4 ADD SWAP2 DUP3 SLOAD SWAP4 PUSH1 0xFF DUP6 AND PUSH1 0x5 DUP2 LT ISZERO PUSH2 0xFB4 JUMPI PUSH1 0x1 SUB PUSH2 0x18FE JUMPI PUSH1 0x8 ADD SLOAD SWAP3 PUSH1 0x4 PUSH2 0x1804 PUSH2 0x2710 PUSH2 0x17FC PUSH2 0xFFFF PUSH1 0x2 SLOAD PUSH1 0xA0 SHR AND DUP9 PUSH2 0x1D57 JUMP JUMPDEST DIV DUP1 SWAP7 PUSH2 0x1DBF JUMP JUMPDEST SWAP6 PUSH1 0xFF NOT AND OR SWAP1 SSTORE DUP5 PUSH1 0x0 MSTORE PUSH1 0x8 DUP3 MSTORE PUSH1 0x0 PUSH1 0x40 DUP2 KECCAK256 SSTORE PUSH1 0x0 DUP1 DUP1 DUP1 DUP8 CALLER GAS CALL PUSH2 0x182C PUSH2 0x1DEF JUMP JUMPDEST POP ISZERO PUSH2 0x18C9 JUMPI DUP3 PUSH2 0x186E JUMPI JUMPDEST POP SWAP2 PUSH1 0x40 SWAP2 PUSH32 0xB4B18587035F30513B67E5DDFFC4E2ABCFDD461D49757F346ED33A5CF0FBA390 SWAP4 DUP4 MLOAD SWAP3 DUP4 MSTORE DUP3 ADD MSTORE LOG2 PUSH1 0x1 DUP1 SSTORE STOP JUMPDEST PUSH1 0x0 DUP1 DUP1 DUP6 DUP2 SWAP5 PUSH1 0x2 SLOAD AND GAS CALL PUSH2 0x1883 PUSH2 0x1DEF JUMP JUMPDEST POP ISZERO PUSH2 0x188F JUMPI DUP5 PUSH2 0x1838 JUMP JUMPDEST PUSH1 0x64 SWAP1 PUSH1 0x40 MLOAD SWAP1 PUSH3 0x461BCD PUSH1 0xE5 SHL DUP3 MSTORE PUSH1 0x4 DUP3 ADD MSTORE PUSH1 0x13 PUSH1 0x24 DUP3 ADD MSTORE PUSH19 0x119959481D1C985B9CD9995C8819985A5B1959 PUSH1 0x6A SHL PUSH1 0x44 DUP3 ADD MSTORE REVERT JUMPDEST PUSH1 0x40 MLOAD PUSH3 0x461BCD PUSH1 0xE5 SHL DUP2 MSTORE PUSH1 0x4 DUP2 ADD DUP4 SWAP1 MSTORE PUSH1 0xD PUSH1 0x24 DUP3 ADD MSTORE PUSH13 0x1499599D5B990819985A5B1959 PUSH1 0x9A SHL PUSH1 0x44 DUP3 ADD MSTORE PUSH1 0x64 SWAP1 REVERT JUMPDEST PUSH1 0x40 MLOAD PUSH3 0x461BCD PUSH1 0xE5 SHL DUP2 MSTORE PUSH1 0x4 DUP2 ADD DUP5 SWAP1 MSTORE PUSH1 0xD PUSH1 0x24 DUP3 ADD MSTORE PUSH13 0x10D85B9B9BDD0818D85B98D95B PUSH1 0x9A SHL PUSH1 0x44 DUP3 ADD MSTORE PUSH1 0x64 SWAP1 REVERT JUMPDEST PUSH1 0x64 SWAP1 PUSH1 0x40 MLOAD SWAP1 PUSH3 0x461BCD PUSH1 0xE5 SHL DUP3 MSTORE PUSH1 0x4 DUP3 ADD MSTORE PUSH1 0x12 PUSH1 0x24 DUP3 ADD MSTORE PUSH18 0x151BDBC81B185D19481D1BC818D85B98D95B PUSH1 0x72 SHL PUSH1 0x44 DUP3 ADD MSTORE REVERT JUMPDEST PUSH1 0x64 SWAP1 PUSH1 0x40 MLOAD SWAP1 PUSH3 0x461BCD PUSH1 0xE5 SHL DUP3 MSTORE PUSH1 0x4 DUP3 ADD MSTORE PUSH1 0x10 PUSH1 0x24 DUP3 ADD MSTORE PUSH16 0x4E6F7420796F757220626F6F6B696E67 PUSH1 0x80 SHL PUSH1 0x44 DUP3 ADD MSTORE REVERT JUMPDEST SWAP1 PUSH1 0x5 DUP3 LT ISZERO PUSH2 0xFB4 JUMPI MSTORE JUMP JUMPDEST SWAP2 SWAP1 DUP3 MLOAD SWAP3 DUP4 DUP3 MSTORE PUSH1 0x0 JUMPDEST DUP5 DUP2 LT PUSH2 0x19DC JUMPI POP POP DUP3 PUSH1 0x0 PUSH1 0x20 DUP1 SWAP5 SWAP6 DUP5 ADD ADD MSTORE PUSH1 0x1F DUP1 NOT SWAP2 ADD AND ADD ADD SWAP1 JUMP JUMPDEST PUSH1 0x20 DUP2 DUP4 ADD DUP2 ADD MLOAD DUP5 DUP4 ADD DUP3 ADD MSTORE ADD PUSH2 0x19BB JUMP JUMPDEST SWAP1 DUP1 DUP3 MLOAD SWAP1 DUP2 DUP2 MSTORE PUSH1 0x20 DUP1 SWAP2 ADD SWAP3 DUP2 DUP1 DUP5 PUSH1 0x5 SHL DUP4 ADD ADD SWAP6 ADD SWAP4 PUSH1 0x0 SWAP2 JUMPDEST DUP5 DUP4 LT PUSH2 0x1A1E JUMPI POP POP POP POP POP POP SWAP1 JUMP JUMPDEST SWAP1 SWAP2 SWAP3 SWAP4 SWAP5 SWAP6 DUP5 DUP1 PUSH2 0x1A3C PUSH1 0x1 SWAP4 PUSH1 0x1F NOT DUP7 DUP3 SUB ADD DUP8 MSTORE DUP11 MLOAD PUSH2 0x19B0 JUMP JUMPDEST SWAP9 ADD SWAP4 ADD SWAP4 ADD SWAP2 SWAP5 SWAP4 SWAP3 SWAP1 PUSH2 0x1A0E JUMP JUMPDEST PUSH1 0x4 CALLDATALOAD SWAP1 PUSH1 0x1 PUSH1 0x1 PUSH1 0xA0 SHL SUB DUP3 AND DUP3 SUB PUSH2 0x131 JUMPI JUMP JUMPDEST PUSH1 0x24 CALLDATALOAD SWAP1 DUP2 ISZERO ISZERO DUP3 SUB PUSH2 0x131 JUMPI JUMP JUMPDEST SWAP1 PUSH1 0x1 DUP3 DUP2 SHR SWAP3 AND DUP1 ISZERO PUSH2 0x1AA1 JUMPI JUMPDEST PUSH1 0x20 DUP4 LT EQ PUSH2 0x1A8B JUMPI JUMP JUMPDEST PUSH4 0x4E487B71 PUSH1 0xE0 SHL PUSH1 0x0 MSTORE PUSH1 0x22 PUSH1 0x4 MSTORE PUSH1 0x24 PUSH1 0x0 REVERT JUMPDEST SWAP2 PUSH1 0x7F AND SWAP2 PUSH2 0x1A80 JUMP JUMPDEST PUSH2 0x140 DUP2 ADD SWAP1 DUP2 LT PUSH1 0x1 PUSH1 0x1 PUSH1 0x40 SHL SUB DUP3 GT OR PUSH2 0x6C6 JUMPI PUSH1 0x40 MSTORE JUMP JUMPDEST PUSH2 0x180 DUP2 ADD SWAP1 DUP2 LT PUSH1 0x1 PUSH1 0x1 PUSH1 0x40 SHL SUB DUP3 GT OR PUSH2 0x6C6 JUMPI PUSH1 0x40 MSTORE JUMP JUMPDEST SWAP1 PUSH1 0x1F DUP1 NOT SWAP2 ADD AND DUP2 ADD SWAP1 DUP2 LT PUSH1 0x1 PUSH1 0x1 PUSH1 0x40 SHL SUB DUP3 GT OR PUSH2 0x6C6 JUMPI PUSH1 0x40 MSTORE JUMP JUMPDEST SWAP1 PUSH1 0x40 MLOAD SWAP2 DUP3 PUSH1 0x0 DUP3 SLOAD SWAP3 PUSH2 0x1B18 DUP5 PUSH2 0x1A71 JUMP JUMPDEST SWAP1 DUP2 DUP5 MSTORE PUSH1 0x1 SWAP5 DUP6 DUP2 AND SWAP1 DUP2 PUSH1 0x0 EQ PUSH2 0x1B87 JUMPI POP PUSH1 0x1 EQ PUSH2 0x1B44 JUMPI JUMPDEST POP POP PUSH2 0x1B42 SWAP3 POP SUB DUP4 PUSH2 0x1AE3 JUMP JUMPDEST JUMP JUMPDEST SWAP1 SWAP4 SWAP2 POP PUSH1 0x0 MSTORE PUSH1 0x20 SWAP1 DUP2 PUSH1 0x0 KECCAK256 SWAP4 PUSH1 0x0 SWAP2 JUMPDEST DUP2 DUP4 LT PUSH2 0x1B6F JUMPI POP POP PUSH2 0x1B42 SWAP4 POP DUP3 ADD ADD CODESIZE DUP1 PUSH2 0x1B34 JUMP JUMPDEST DUP6 SLOAD DUP9 DUP5 ADD DUP6 ADD MSTORE SWAP5 DUP6 ADD SWAP5 DUP8 SWAP5 POP SWAP2 DUP4 ADD SWAP2 PUSH2 0x1B57 JUMP JUMPDEST SWAP2 POP POP PUSH2 0x1B42 SWAP5 POP PUSH1 0x20 SWAP3 POP PUSH1 0xFF NOT AND DUP3 DUP5 ADD MSTORE ISZERO ISZERO PUSH1 0x5 SHL DUP3 ADD ADD CODESIZE DUP1 PUSH2 0x1B34 JUMP JUMPDEST SWAP2 DUP2 PUSH1 0x1F DUP5 ADD SLT ISZERO PUSH2 0x131 JUMPI DUP3 CALLDATALOAD SWAP2 PUSH1 0x1 PUSH1 0x1 PUSH1 0x40 SHL SUB DUP4 GT PUSH2 0x131 JUMPI PUSH1 0x20 DUP4 DUP2 DUP7 ADD SWAP6 ADD ADD GT PUSH2 0x131 JUMPI JUMP JUMPDEST SWAP2 DUP2 PUSH1 0x1F DUP5 ADD SLT ISZERO PUSH2 0x131 JUMPI DUP3 CALLDATALOAD SWAP2 PUSH1 0x1 PUSH1 0x1 PUSH1 0x40 SHL SUB DUP4 GT PUSH2 0x131 JUMPI PUSH1 0x20 DUP1 DUP6 ADD SWAP5 DUP5 PUSH1 0x5 SHL ADD ADD GT PUSH2 0x131 JUMPI JUMP JUMPDEST PUSH1 0x0 SLOAD PUSH1 0x1 PUSH1 0x1 PUSH1 0xA0 SHL SUB AND CALLER SUB PUSH2 0x1C1B JUMPI JUMP JUMPDEST PUSH1 0x40 MLOAD PUSH4 0x118CDAA7 PUSH1 0xE0 SHL DUP2 MSTORE CALLER PUSH1 0x4 DUP3 ADD MSTORE PUSH1 0x24 SWAP1 REVERT JUMPDEST PUSH1 0x0 NOT DUP2 EQ PUSH2 0x1C42 JUMPI PUSH1 0x1 ADD SWAP1 JUMP JUMPDEST PUSH4 0x4E487B71 PUSH1 0xE0 SHL PUSH1 0x0 MSTORE PUSH1 0x11 PUSH1 0x4 MSTORE PUSH1 0x24 PUSH1 0x0 REVERT JUMPDEST PUSH1 0x1 PUSH1 0x1 PUSH1 0x40 SHL SUB DUP2 GT PUSH2 0x6C6 JUMPI PUSH1 0x1F ADD PUSH1 0x1F NOT AND PUSH1 0x20 ADD SWAP1 JUMP JUMPDEST SWAP3 SWAP2 SWAP3 PUSH2 0x1C7F DUP3 PUSH2 0x1C58 JUMP JUMPDEST SWAP2 PUSH2 0x1C8D PUSH1 0x40 MLOAD SWAP4 DUP5 PUSH2 0x1AE3 JUMP JUMPDEST DUP3 SWAP5 DUP2 DUP5 MSTORE DUP2 DUP4 ADD GT PUSH2 0x131 JUMPI DUP3 DUP2 PUSH1 0x20 SWAP4 DUP5 PUSH1 0x0 SWAP7 ADD CALLDATACOPY ADD ADD MSTORE JUMP JUMPDEST PUSH1 0x1 PUSH1 0x1 PUSH1 0x40 SHL SUB DUP2 GT PUSH2 0x6C6 JUMPI PUSH1 0x5 SHL PUSH1 0x20 ADD SWAP1 JUMP JUMPDEST SWAP3 SWAP2 SWAP1 SWAP3 PUSH2 0x1CCE DUP5 PUSH2 0x1CAA JUMP JUMPDEST SWAP2 PUSH2 0x1CDC PUSH1 0x40 MLOAD SWAP4 DUP5 PUSH2 0x1AE3 JUMP JUMPDEST DUP3 SWAP5 DUP1 DUP5 MSTORE PUSH1 0x20 DUP1 SWAP5 ADD SWAP1 PUSH1 0x5 SHL DUP4 ADD SWAP3 DUP3 DUP5 GT PUSH2 0x131 JUMPI DUP1 SWAP2 JUMPDEST DUP5 DUP4 LT PUSH2 0x1D06 JUMPI POP POP POP POP POP POP JUMP JUMPDEST DUP3 CALLDATALOAD PUSH1 0x1 PUSH1 0x1 PUSH1 0x40 SHL SUB DUP2 GT PUSH2 0x131 JUMPI DUP3 ADD DUP5 PUSH1 0x1F DUP3 ADD SLT ISZERO PUSH2 0x131 JUMPI DUP7 SWAP2 PUSH2 0x1D35 DUP7 DUP4 DUP6 DUP1 SWAP6 CALLDATALOAD SWAP2 ADD PUSH2 0x1C73 JUMP JUMPDEST DUP2 MSTORE ADD SWAP3 ADD SWAP2 PUSH2 0x1CF7 JUMP JUMPDEST DUP2 DUP2 LT PUSH2 0x1D4B JUMPI POP POP JUMP JUMPDEST PUSH1 0x0 DUP2 SSTORE PUSH1 0x1 ADD PUSH2 0x1D40 JUMP JUMPDEST DUP2 DUP2 MUL SWAP3 SWAP2 DUP2 ISZERO SWAP2 DUP5 DIV EQ OR ISZERO PUSH2 0x1C42 JUMPI JUMP JUMPDEST SWAP1 DUP2 SLOAD PUSH2 0x1D76 DUP2 PUSH2 0x1CAA JUMP JUMPDEST SWAP3 PUSH2 0x1D84 PUSH1 0x40 MLOAD SWAP5 DUP6 PUSH2 0x1AE3 JUMP JUMPDEST DUP2 DUP5 MSTORE PUSH1 0x0 SWAP1 DUP2 MSTORE PUSH1 0x20 DUP1 DUP3 KECCAK256 DUP2 DUP7 ADD JUMPDEST DUP5 DUP5 LT PUSH2 0x1DA3 JUMPI POP POP POP POP POP JUMP JUMPDEST PUSH1 0x1 DUP4 DUP2 SWAP3 PUSH2 0x1DB1 DUP6 PUSH2 0x1B04 JUMP JUMPDEST DUP2 MSTORE ADD SWAP3 ADD SWAP4 ADD SWAP3 SWAP1 PUSH2 0x1D95 JUMP JUMPDEST SWAP2 SWAP1 DUP3 SUB SWAP2 DUP3 GT PUSH2 0x1C42 JUMPI JUMP JUMPDEST PUSH1 0x2 PUSH1 0x1 SLOAD EQ PUSH2 0x1DDD JUMPI PUSH1 0x2 PUSH1 0x1 SSTORE JUMP JUMPDEST PUSH1 0x40 MLOAD PUSH4 0x3EE5AEB5 PUSH1 0xE0 SHL DUP2 MSTORE PUSH1 0x4 SWAP1 REVERT JUMPDEST RETURNDATASIZE ISZERO PUSH2 0x1E1A JUMPI RETURNDATASIZE SWAP1 PUSH2 0x1E00 DUP3 PUSH2 0x1C58 JUMP JUMPDEST SWAP2 PUSH2 0x1E0E PUSH1 0x40 MLOAD SWAP4 DUP5 PUSH2 0x1AE3 JUMP JUMPDEST DUP3 MSTORE RETURNDATASIZE PUSH1 0x0 PUSH1 0x20 DUP5 ADD RETURNDATACOPY JUMP JUMPDEST PUSH1 0x60 SWAP1 JUMP JUMPDEST ISZERO PUSH2 0x1E26 JUMPI JUMP JUMPDEST PUSH1 0x40 MLOAD PUSH3 0x461BCD PUSH1 0xE5 SHL DUP2 MSTORE PUSH1 0x20 PUSH1 0x4 DUP3 ADD MSTORE PUSH1 0xA PUSH1 0x24 DUP3 ADD MSTORE PUSH10 0x27B7363C9030B236B4B7 PUSH1 0xB1 SHL PUSH1 0x44 DUP3 ADD MSTORE PUSH1 0x64 SWAP1 REVERT INVALID LOG2 PUSH5 0x6970667358 0x22 SLT KECCAK256 0xBB 0x4B 0xC4 0xB5 0xB4 PUSH31 0xC598EBFA71D255F2B798F673DF36ABD78AF96FEAEE9DDAD396BF64736F6C63 NUMBER STOP ADDMOD EQ STOP CALLER "},"methodIdentifiers":{"accommodationCounter()":"9389e7aa","accommodations(uint256)":"d599db29","admin()":"f851a440","bookingCounter()":"d287ac42","bookings(uint256)":"1dab301e","cancelBooking(uint256)":"0dca825e","completeBooking(uint256)":"1a2b3431","createAccommodation(string,string,string,uint256,uint8,bool,string[],string[])":"e336686e","createBooking(uint256,uint256,uint256)":"0ddd9c85","escrowBalances(uint256)":"43ebf45a","getAccommodation(uint256)":"580d2289","getBooking(uint256)":"6a5c841a","getEscrowBalance(uint256)":"fce60903","owner()":"8da5cb5b","platformFeeBps()":"22dcd13e","renounceOwnership()":"715018a6","setAvailability(uint256,bool)":"a865bf80","setPlatformFee(uint16)":"5cbc742c","transferOwnership(address)":"f2fde38b","whitelistHost(address,bool)":"952f0f58","whitelistedHosts(address)":"805a232f"}}}}}