{
  "_format": "hh-sol-artifact-1",
  "contractName": "BookingEscrow",
  "sourceName": "src/contracts/BookingEscrow.sol",
  "abi": [
    {
      "inputs": [
        {
          "internalType": "address",
          "name": "_escrowAdmin",
          "type": "address"
        }
      ],
      "stateMutability": "nonpayable",
      "type": "constructor"
    },
    {
      "inputs": [],
      "name": "AlreadyDeposited",
      "type": "error"
    },
    {
      "inputs": [],
      "name": "BookingAlreadyCompleted",
      "type": "error"
    },
    {
      "inputs": [],
      "name": "BookingNotDeposited",
      "type": "error"
    },
    {
      "inputs": [],
      "name": "InsufficientDeposit",
      "type": "error"
    },
    {
      "inputs": [],
      "name": "InvalidBookingId",
      "type": "error"
    },
    {
      "inputs": [],
      "name": "InvalidDates",
      "type": "error"
    },
    {
      "inputs": [],
      "name": "NotAuthorized",
      "type": "error"
    },
    {
      "inputs": [],
      "name": "TransactionFailed",
      "type": "error"
    },
    {
      "anonymous": false,
      "inputs": [
        {
          "indexed": true,
          "internalType": "uint256",
          "name": "bookingId",
          "type": "uint256"
        },
        {
          "indexed": true,
          "internalType": "address",
          "name": "guest",
          "type": "address"
        },
        {
          "indexed": false,
          "internalType": "string",
          "name": "reason",
          "type": "string"
        },
        {
          "indexed": false,
          "internalType": "uint256",
          "name": "refundAmount",
          "type": "uint256"
        }
      ],
      "name": "BookingCancelled",
      "type": "event"
    },
    {
      "anonymous": false,
      "inputs": [
        {
          "indexed": true,
          "internalType": "uint256",
          "name": "bookingId",
          "type": "uint256"
        },
        {
          "indexed": false,
          "internalType": "uint256",
          "name": "amount",
          "type": "uint256"
        }
      ],
      "name": "BookingCompleted",
      "type": "event"
    },
    {
      "anonymous": false,
      "inputs": [
        {
          "indexed": true,
          "internalType": "uint256",
          "name": "bookingId",
          "type": "uint256"
        },
        {
          "indexed": true,
          "internalType": "address",
          "name": "admin",
          "type": "address"
        }
      ],
      "name": "BookingConfirmed",
      "type": "event"
    },
    {
      "anonymous": false,
      "inputs": [
        {
          "indexed": true,
          "internalType": "uint256",
          "name": "bookingId",
          "type": "uint256"
        },
        {
          "indexed": true,
          "internalType": "address",
          "name": "guest",
          "type": "address"
        },
        {
          "indexed": true,
          "internalType": "string",
          "name": "accommodationId",
          "type": "string"
        },
        {
          "indexed": false,
          "internalType": "uint256",
          "name": "totalAmount",
          "type": "uint256"
        },
        {
          "indexed": false,
          "internalType": "uint256",
          "name": "checkIn",
          "type": "uint256"
        },
        {
          "indexed": false,
          "internalType": "uint256",
          "name": "checkOut",
          "type": "uint256"
        }
      ],
      "name": "BookingCreated",
      "type": "event"
    },
    {
      "anonymous": false,
      "inputs": [
        {
          "indexed": true,
          "internalType": "uint256",
          "name": "bookingId",
          "type": "uint256"
        },
        {
          "indexed": true,
          "internalType": "address",
          "name": "guest",
          "type": "address"
        },
        {
          "indexed": false,
          "internalType": "uint256",
          "name": "amount",
          "type": "uint256"
        }
      ],
      "name": "DepositReceived",
      "type": "event"
    },
    {
      "anonymous": false,
      "inputs": [
        {
          "indexed": true,
          "internalType": "uint256",
          "name": "bookingId",
          "type": "uint256"
        },
        {
          "indexed": true,
          "internalType": "address",
          "name": "admin",
          "type": "address"
        },
        {
          "indexed": true,
          "internalType": "address",
          "name": "to",
          "type": "address"
        },
        {
          "indexed": false,
          "internalType": "uint256",
          "name": "amount",
          "type": "uint256"
        }
      ],
      "name": "FundsReleased",
      "type": "event"
    },
    {
      "inputs": [
        {
          "internalType": "uint256",
          "name": "",
          "type": "uint256"
        }
      ],
      "name": "bookings",
      "outputs": [
        {
          "internalType": "uint256",
          "name": "bookingId",
          "type": "uint256"
        },
        {
          "internalType": "address",
          "name": "guest",
          "type": "address"
        },
        {
          "internalType": "string",
          "name": "accommodationId",
          "type": "string"
        },
        {
          "internalType": "uint256",
          "name": "checkIn",
          "type": "uint256"
        },
        {
          "internalType": "uint256",
          "name": "checkOut",
          "type": "uint256"
        },
        {
          "internalType": "uint256",
          "name": "totalAmount",
          "type": "uint256"
        },
        {
          "internalType": "uint256",
          "name": "depositedAmount",
          "type": "uint256"
        },
        {
          "internalType": "enum BookingEscrow.BookingStatus",
          "name": "status",
          "type": "uint8"
        },
        {
          "internalType": "bool",
          "name": "isCompleted",
          "type": "bool"
        },
        {
          "internalType": "uint256",
          "name": "createdAt",
          "type": "uint256"
        },
        {
          "internalType": "uint256",
          "name": "completedAt",
          "type": "uint256"
        }
      ],
      "stateMutability": "view",
      "type": "function"
    },
    {
      "inputs": [
        {
          "internalType": "uint256",
          "name": "_bookingId",
          "type": "uint256"
        },
        {
          "internalType": "string",
          "name": "_reason",
          "type": "string"
        }
      ],
      "name": "cancelBooking",
      "outputs": [],
      "stateMutability": "nonpayable",
      "type": "function"
    },
    {
      "inputs": [
        {
          "internalType": "uint256",
          "name": "_bookingId",
          "type": "uint256"
        }
      ],
      "name": "completeBooking",
      "outputs": [],
      "stateMutability": "nonpayable",
      "type": "function"
    },
    {
      "inputs": [
        {
          "internalType": "uint256",
          "name": "_bookingId",
          "type": "uint256"
        }
      ],
      "name": "confirmBooking",
      "outputs": [],
      "stateMutability": "nonpayable",
      "type": "function"
    },
    {
      "inputs": [
        {
          "internalType": "string",
          "name": "_accommodationId",
          "type": "string"
        },
        {
          "internalType": "uint256",
          "name": "_checkIn",
          "type": "uint256"
        },
        {
          "internalType": "uint256",
          "name": "_checkOut",
          "type": "uint256"
        },
        {
          "internalType": "uint256",
          "name": "_totalAmount",
          "type": "uint256"
        }
      ],
      "name": "createBooking",
      "outputs": [
        {
          "internalType": "uint256",
          "name": "",
          "type": "uint256"
        }
      ],
      "stateMutability": "nonpayable",
      "type": "function"
    },
    {
      "inputs": [
        {
          "internalType": "uint256",
          "name": "_bookingId",
          "type": "uint256"
        }
      ],
      "name": "depositCelo",
      "outputs": [],
      "stateMutability": "payable",
      "type": "function"
    },
    {
      "inputs": [],
      "name": "escrowAdmin",
      "outputs": [
        {
          "internalType": "address",
          "name": "",
          "type": "address"
        }
      ],
      "stateMutability": "view",
      "type": "function"
    },
    {
      "inputs": [
        {
          "internalType": "uint256",
          "name": "_bookingId",
          "type": "uint256"
        }
      ],
      "name": "getBooking",
      "outputs": [
        {
          "components": [
            {
              "internalType": "uint256",
              "name": "bookingId",
              "type": "uint256"
            },
            {
              "internalType": "address",
              "name": "guest",
              "type": "address"
            },
            {
              "internalType": "string",
              "name": "accommodationId",
              "type": "string"
            },
            {
              "internalType": "uint256",
              "name": "checkIn",
              "type": "uint256"
            },
            {
              "internalType": "uint256",
              "name": "checkOut",
              "type": "uint256"
            },
            {
              "internalType": "uint256",
              "name": "totalAmount",
              "type": "uint256"
            },
            {
              "internalType": "uint256",
              "name": "depositedAmount",
              "type": "uint256"
            },
            {
              "internalType": "enum BookingEscrow.BookingStatus",
              "name": "status",
              "type": "uint8"
            },
            {
              "internalType": "bool",
              "name": "isCompleted",
              "type": "bool"
            },
            {
              "internalType": "uint256",
              "name": "createdAt",
              "type": "uint256"
            },
            {
              "internalType": "uint256",
              "name": "completedAt",
              "type": "uint256"
            }
          ],
          "internalType": "struct BookingEscrow.Booking",
          "name": "",
          "type": "tuple"
        }
      ],
      "stateMutability": "view",
      "type": "function"
    },
    {
      "inputs": [
        {
          "internalType": "address",
          "name": "_user",
          "type": "address"
        }
      ],
      "name": "getBookingCount",
      "outputs": [
        {
          "internalType": "uint256",
          "name": "",
          "type": "uint256"
        }
      ],
      "stateMutability": "view",
      "type": "function"
    },
    {
      "inputs": [],
      "name": "getContractBalance",
      "outputs": [
        {
          "internalType": "uint256",
          "name": "",
          "type": "uint256"
        }
      ],
      "stateMutability": "view",
      "type": "function"
    },
    {
      "inputs": [
        {
          "internalType": "address",
          "name": "_user",
          "type": "address"
        }
      ],
      "name": "getUserBookings",
      "outputs": [
        {
          "internalType": "uint256[]",
          "name": "",
          "type": "uint256[]"
        }
      ],
      "stateMutability": "view",
      "type": "function"
    },
    {
      "inputs": [
        {
          "internalType": "address",
          "name": "_user",
          "type": "address"
        }
      ],
      "name": "hasBookings",
      "outputs": [
        {
          "internalType": "bool",
          "name": "",
          "type": "bool"
        }
      ],
      "stateMutability": "view",
      "type": "function"
    },
    {
      "inputs": [],
      "name": "nextBookingId",
      "outputs": [
        {
          "internalType": "uint256",
          "name": "",
          "type": "uint256"
        }
      ],
      "stateMutability": "view",
      "type": "function"
    },
    {
      "inputs": [
        {
          "internalType": "address",
          "name": "",
          "type": "address"
        },
        {
          "internalType": "uint256",
          "name": "",
          "type": "uint256"
        }
      ],
      "name": "userBookings",
      "outputs": [
        {
          "internalType": "uint256",
          "name": "",
          "type": "uint256"
        }
      ],
      "stateMutability": "view",
      "type": "function"
    }
  ],
  "bytecode": "0x60a0346100cf57601f61146738819003918201601f19168301916001600160401b038311848410176100d4578084926020946040528339810103126100cf57516001600160a01b0381168082036100cf571561008a57608052600160005560405161137c90816100eb82396080518181816103cc015281816105c901528181610c750152610e850152f35b60405162461bcd60e51b815260206004820152601560248201527f496e76616c69642061646d696e206164647265737300000000000000000000006044820152606490fd5b600080fd5b634e487b7160e01b600052604160045260246000fdfe608080604052600436101561001357600080fd5b60003560e01c9081630dfb62b714611046575080631a2b343114610e715780631dab301e14610daa57806326f20c7914610d8c5780633ca1995214610d5257806354056b6914610c5b5780636a5c841a14610a985780636f9fb98a14610a7c5780637c31854c146105f85780638761fb7c146105b3578063d27d559f14610388578063e1e04458146101ca578063e3a4d3a2146101725763ef3197c8146100b957600080fd5b3461016d5760208060031936011261016d576001600160a01b036100db61107e565b1660005260028152604060002060405190818382549182815201908192600052846000209060005b86828210610159578686610119828803836110eb565b604051928392818401908285525180915260408401929160005b82811061014257505050500390f35b835185528695509381019392810192600101610133565b835485529093019260019283019201610103565b600080fd5b3461016d57604036600319011261016d5761018b61107e565b6001600160a01b031660009081526002602052604090208054602435919082101561016d576020916101bc9161126b565b90546040519160031b1c8152f35b60208060031936011261016d5760043580600052600182526101f26040600020541515611299565b600081815260018084526040909120908101546001600160a01b0316330361034b57600781019081549060ff82166005811015610335576102fa57600581015434036102b557341561027c579060019160063491015560ff19161790557f5b063c6569a91e8133fc6cd71d31a4ca5c65c652fd53ae093f46107754f08541604051923484523393a3005b60405162461bcd60e51b81526004810186905260116024820152704d757374206465706f7369742043454c4f60781b6044820152606490fd5b60405162461bcd60e51b815260048101869052601860248201527f496e636f7272656374206465706f73697420616d6f756e7400000000000000006044820152606490fd5b60405162461bcd60e51b8152600481018690526013602482015272426f6f6b696e67206e6f742070656e64696e6760681b6044820152606490fd5b634e487b7160e01b600052602160045260246000fd5b60405162461bcd60e51b8152600481018490526015602482015274139bdd081d1a1948189bdbdada5b99c819dd595cdd605a1b6044820152606490fd5b3461016d57604036600319011261016d5760043560243567ffffffffffffffff811161016d576103bc903690600401611224565b6001600160a01b0391906103f3337f00000000000000000000000000000000000000000000000000000000000000008516146112d9565b8160005260206001815261040d6040600020541515611299565b8260005260018152604060002093600785019485549560ff8716600581101590816103355780159182156105a5575b8215610594575b50501561054f5760068201549687156104fe575090600191600460ff1982541617905501600080808089868654165af161047b611316565b50156104c957917f56c87abd8d1a6e16339a44b3b5ee9fb2b0677e93bcad3b83c25117f705eeaa4393916104c0935416956040519384936040855260408501906111d6565b918301520390a3005b60405162461bcd60e51b815260048101849052600d60248201526c1499599d5b990819985a5b1959609a1b6044820152606490fd5b6104c09497509160019160047f56c87abd8d1a6e16339a44b3b5ee9fb2b0677e93bcad3b83c25117f705eeaa4397959460ff19161790550154169460006040519384936040855260408501906111d6565b60405162461bcd60e51b815260048101859052601f60248201527f43616e6e6f742063616e63656c20636f6d706c6574656420626f6f6b696e67006044820152606490fd5b909150610335576002148880610443565b50600181149150600061043c565b3461016d57600036600319011261016d576040517f00000000000000000000000000000000000000000000000000000000000000006001600160a01b03168152602090f35b3461016d57608036600319011261016d5760043567ffffffffffffffff811161016d57610629903690600401611224565b805115610a375742602435106109f25760243560443511156109ae5760643515610969576000546000198114610953576001810160005560405161066c816110ce565b8181523360208201528260408201526024356060820152604435608082015260643560a0820152600060c0820152600060e08201526000610100820152426101208201526000610140820152816000526001602052604060002090805182556001820160018060a01b036020830151166bffffffffffffffffffffffff60a01b825416179055604081015180519067ffffffffffffffff821161086d5781906107186002860154611094565b601f8111610900575b50602090601f831160011461088e57600092610883575b50508160011b916000199060031b1c19161760028301555b606081015160038301556080810151600483015560a0810151600583015560c08101516006830155600782019060e08101519060058210156103355782610140926009945460ff61ff00610100860151151560081b1692169061ffff191617179055610120810151600885015501519101553360005260026020526040600020918254906801000000000000000082101561086d576107fa8260209560016108229501815561126b565b81549060031b9085821b91600019901b191617905583604051928284809451938492016111b3565b81010390206040516064358152602435848201526044356040820152827ff4d94a4958626629b160261536809e5f23c4ccf177273c504e46460b69dceaf960603393a4604051908152f35b634e487b7160e01b600052604160045260246000fd5b015190508680610738565b9250600285016000526020600020906000935b601f19841685106108e5576001945083601f198116106108cc575b505050811b016002830155610750565b015160001960f88460031b161c191690558680806108bc565b818101518355602094850194600190930192909101906108a1565b909150600285016000526020600020601f840160051c81016020851061094c575b90849392915b601f830160051c8201811061093d575050610721565b60008155859450600101610927565b5080610921565b634e487b7160e01b600052601160045260246000fd5b60405162461bcd60e51b815260206004820152601d60248201527f416d6f756e74206d7573742062652067726561746572207468616e20300000006044820152606490fd5b606460405162461bcd60e51b815260206004820152602060248201527f436865636b2d6f7574206d75737420626520616674657220636865636b2d696e6044820152fd5b60405162461bcd60e51b815260206004820152601a60248201527f436865636b2d696e206d75737420626520696e206675747572650000000000006044820152606490fd5b60405162461bcd60e51b815260206004820152601860248201527f496e76616c6964206163636f6d6d6f646174696f6e20494400000000000000006044820152606490fd5b3461016d57600036600319011261016d57602047604051908152f35b3461016d57602036600319011261016d576004356000610140604051610abd816110ce565b828152826020820152606060408201528260608201528260808201528260a08201528260c08201528260e082015282610100820152826101208201520152806000526001602052610b146040600020541515611299565b6000526001602052604060002060405190610b2e826110ce565b8054825260018101546001600160a01b03166020830152610b516002820161110d565b60408301526003810154606083015260048101546080830152600581015460a0830152600681015460c083015260078101549060ff821660058110156103355760099260ff9160e086015260081c161515610100840152600881015461012084015201546101408201526040518091602082528051602083015260018060a01b0360208201511660408301526040810151610140610bfd610160928360608701526101808601906111d6565b9260608101516080860152608081015160a086015260a081015160c086015260c081015160e0860152610c3960e08201516101008701906111fb565b6101008101511515610120860152610120810151828601520151908301520390f35b3461016d57602036600319011261016d57600435610ca3337f00000000000000000000000000000000000000000000000000000000000000006001600160a01b0316146112d9565b806000526001602052610cbc6040600020541515611299565b8060005260016020526007604060002001805460ff8116600581101561033557600103610d155760ff1916600217905533907f32a6eab1f4a0177609cc24472e391822aae8a497472601ef3f98523b4bc7bd31600080a3005b60405162461bcd60e51b8152602060048201526015602482015274109bdbdada5b99c81b9bdd0819195c1bdcda5d1959605a1b6044820152606490fd5b3461016d57602036600319011261016d576001600160a01b03610d7361107e565b1660005260026020526020604060002054604051908152f35b3461016d57600036600319011261016d576020600054604051908152f35b3461016d57602036600319011261016d5760043560005260016020526040600020805460018060a01b0360018301541691610de76002820161110d565b60038201549160ff60048201546005830154600684015490600785015492610e3160096008880154970154976040519b8c9b8c5260208c01526101608060408d01528b01906111d6565b9760608a0152608089015260a088015260c0870152610e5560e087018383166111fb565b60081c1615156101008501526101208401526101408301520390f35b3461016d5760208060031936011261016d577f00000000000000000000000000000000000000000000000000000000000000006001600160a01b0381169160043590610ebe3385146112d9565b8160005260018152610ed66040600020541515611299565b8160005260018152604060002060078101805460ff81166005811015610335576002036110095760ff8160081c16610fc4576000600681948294610103849561ffff1916179055426009820155015480975af1610f31611316565b5015610f8e5780827f7c216d827663830a8eaf435519e88ebb0b1c00dccaf021972073a54c9535c3da7f44578cae325142d40e20755dd70a4d16c3270e80fc8c521b5f72969e93cd2d6793604051878152a26040519384523393a4005b6064906040519062461bcd60e51b82526004820152600f60248201526e151c985b9cd9995c8819985a5b1959608a1b6044820152fd5b60405162461bcd60e51b815260048101859052601960248201527f426f6f6b696e6720616c726561647920636f6d706c65746564000000000000006044820152606490fd5b60405162461bcd60e51b8152600481018590526015602482015274109bdbdada5b99c81b9bdd0818dbdb999a5c9b5959605a1b6044820152606490fd5b3461016d57602036600319011261016d576020906001600160a01b0361106a61107e565b166000526002825260406000205415158152f35b600435906001600160a01b038216820361016d57565b90600182811c921680156110c4575b60208310146110ae57565b634e487b7160e01b600052602260045260246000fd5b91607f16916110a3565b610160810190811067ffffffffffffffff82111761086d57604052565b90601f8019910116810190811067ffffffffffffffff82111761086d57604052565b906040519182600082549261112184611094565b908184526001948581169081600014611190575060011461114d575b505061114b925003836110eb565b565b9093915060005260209081600020936000915b81831061117857505061114b9350820101388061113d565b85548884018501529485019487945091830191611160565b91505061114b94506020925060ff191682840152151560051b820101388061113d565b60005b8381106111c65750506000910152565b81810151838201526020016111b6565b906020916111ef815180928185528580860191016111b3565b601f01601f1916010190565b9060058210156103355752565b67ffffffffffffffff811161086d57601f01601f191660200190565b81601f8201121561016d5780359061123b82611208565b9261124960405194856110eb565b8284526020838301011161016d57816000926020809301838601378301015290565b80548210156112835760005260206000200190600090565b634e487b7160e01b600052603260045260246000fd5b156112a057565b60405162461bcd60e51b8152602060048201526011602482015270109bdbdada5b99c81b9bdd08199bdd5b99607a1b6044820152606490fd5b156112e057565b60405162461bcd60e51b815260206004820152600e60248201526d139bdd08185d5d1a1bdc9a5e995960921b6044820152606490fd5b3d15611341573d9061132782611208565b9161133560405193846110eb565b82523d6000602084013e565b60609056fea264697066735822122060c2f54e046b271c54ddbe7d6e2da34fdf49c77064543aebc26a2b981af1407f64736f6c63430008140033",
  "linkReferences": {},
  "deployedLinkReferences": {}
}